{"contracts/BMBLANCE.sol":{"BMBLANCE":{"abi":[{"inputs":[{"internalType":"address","name":"_donationWallet","type":"address"},{"internalType":"address","name":"_liquidityWallet","type":"address"}],"stateMutability":"nonpayable","type":"constructor"},{"inputs":[{"internalType":"address","name":"spender","type":"address"},{"internalType":"uint256","name":"allowance","type":"uint256"},{"internalType":"uint256","name":"needed","type":"uint256"}],"name":"ERC20InsufficientAllowance","type":"error"},{"inputs":[{"internalType":"address","name":"sender","type":"address"},{"internalType":"uint256","name":"balance","type":"uint256"},{"internalType":"uint256","name":"needed","type":"uint256"}],"name":"ERC20InsufficientBalance","type":"error"},{"inputs":[{"internalType":"address","name":"approver","type":"address"}],"name":"ERC20InvalidApprover","type":"error"},{"inputs":[{"internalType":"address","name":"receiver","type":"address"}],"name":"ERC20InvalidReceiver","type":"error"},{"inputs":[{"internalType":"address","name":"sender","type":"address"}],"name":"ERC20InvalidSender","type":"error"},{"inputs":[{"internalType":"address","name":"spender","type":"address"}],"name":"ERC20InvalidSpender","type":"error"},{"inputs":[{"internalType":"address","name":"owner","type":"address"}],"name":"OwnableInvalidOwner","type":"error"},{"inputs":[{"internalType":"address","name":"account","type":"address"}],"name":"OwnableUnauthorizedAccount","type":"error"},{"inputs":[],"name":"ReentrancyGuardReentrantCall","type":"error"},{"anonymous":false,"inputs":[{"indexed":true,"internalType":"address","name":"owner","type":"address"},{"indexed":true,"internalType":"address","name":"spender","type":"address"},{"indexed":false,"internalType":"uint256","name":"value","type":"uint256"}],"name":"Approval","type":"event"},{"anonymous":false,"inputs":[{"indexed":false,"internalType":"address","name":"to","type":"address"},{"indexed":false,"internalType":"uint256","name":"amount","type":"uint256"}],"name":"DonationSent","type":"event"},{"anonymous":false,"inputs":[{"indexed":false,"internalType":"address","name":"newWallet","type":"address"}],"name":"DonationWalletUpdated","type":"event"},{"anonymous":false,"inputs":[{"indexed":false,"internalType":"address","name":"account","type":"address"},{"indexed":false,"internalType":"bool","name":"excluded","type":"bool"}],"name":"ExcludedFromFee","type":"event"},{"anonymous":false,"inputs":[{"indexed":false,"internalType":"address","name":"newWallet","type":"address"}],"name":"LiquidityWalletUpdated","type":"event"},{"anonymous":false,"inputs":[{"indexed":true,"internalType":"address","name":"previousOwner","type":"address"},{"indexed":true,"internalType":"address","name":"newOwner","type":"address"}],"name":"OwnershipTransferred","type":"event"},{"anonymous":false,"inputs":[{"indexed":false,"internalType":"bool","name":"active","type":"bool"}],"name":"PresaleStatusChanged","type":"event"},{"anonymous":false,"inputs":[{"indexed":false,"internalType":"uint256","name":"reflectionTax","type":"uint256"},{"indexed":false,"internalType":"uint256","name":"donationTax","type":"uint256"},{"indexed":false,"internalType":"uint256","name":"liquidityTax","type":"uint256"}],"name":"TaxesUpdated","type":"event"},{"anonymous":false,"inputs":[{"indexed":false,"internalType":"uint256","name":"newPrice","type":"uint256"}],"name":"TokenPriceUpdated","type":"event"},{"anonymous":false,"inputs":[{"indexed":true,"internalType":"address","name":"buyer","type":"address"},{"indexed":false,"internalType":"uint256","name":"ethAmount","type":"uint256"},{"indexed":false,"internalType":"uint256","name":"tokenAmount","type":"uint256"}],"name":"TokensPurchased","type":"event"},{"anonymous":false,"inputs":[{"indexed":true,"internalType":"address","name":"from","type":"address"},{"indexed":true,"internalType":"address","name":"to","type":"address"},{"indexed":false,"internalType":"uint256","name":"value","type":"uint256"}],"name":"Transfer","type":"event"},{"inputs":[],"name":"MAX_TAX","outputs":[{"internalType":"uint256","name":"","type":"uint256"}],"stateMutability":"view","type":"function"},{"inputs":[{"internalType":"address","name":"owner","type":"address"},{"internalType":"address","name":"spender","type":"address"}],"name":"allowance","outputs":[{"internalType":"uint256","name":"","type":"uint256"}],"stateMutability":"view","type":"function"},{"inputs":[{"internalType":"address","name":"spender","type":"address"},{"internalType":"uint256","name":"value","type":"uint256"}],"name":"approve","outputs":[{"internalType":"bool","name":"","type":"bool"}],"stateMutability":"nonpayable","type":"function"},{"inputs":[{"internalType":"address","name":"account","type":"address"}],"name":"balanceOf","outputs":[{"internalType":"uint256","name":"","type":"uint256"}],"stateMutability":"view","type":"function"},{"inputs":[{"internalType":"uint256","name":"amount","type":"uint256"}],"name":"burn","outputs":[],"stateMutability":"nonpayable","type":"function"},{"inputs":[],"name":"buyTokens","outputs":[],"stateMutability":"payable","type":"function"},{"inputs":[],"name":"decimals","outputs":[{"internalType":"uint8","name":"","type":"uint8"}],"stateMutability":"view","type":"function"},{"inputs":[],"name":"donationTax","outputs":[{"internalType":"uint256","name":"","type":"uint256"}],"stateMutability":"view","type":"function"},{"inputs":[],"name":"donationWallet","outputs":[{"internalType":"address","name":"","type":"address"}],"stateMutability":"view","type":"function"},{"inputs":[],"name":"getContractETHBalance","outputs":[{"internalType":"uint256","name":"","type":"uint256"}],"stateMutability":"view","type":"function"},{"inputs":[],"name":"getPresaleInfo","outputs":[{"internalType":"bool","name":"active","type":"bool"},{"internalType":"uint256","name":"price","type":"uint256"},{"internalType":"uint256","name":"minPurchase","type":"uint256"},{"internalType":"uint256","name":"maxPurchase","type":"uint256"},{"internalType":"uint256","name":"availableTokens","type":"uint256"}],"stateMutability":"view","type":"function"},{"inputs":[{"internalType":"address","name":"account","type":"address"}],"name":"isExcludedFromFee","outputs":[{"internalType":"bool","name":"","type":"bool"}],"stateMutability":"view","type":"function"},{"inputs":[],"name":"liquidityTax","outputs":[{"internalType":"uint256","name":"","type":"uint256"}],"stateMutability":"view","type":"function"},{"inputs":[],"name":"liquidityWallet","outputs":[{"internalType":"address","name":"","type":"address"}],"stateMutability":"view","type":"function"},{"inputs":[],"name":"name","outputs":[{"internalType":"string","name":"","type":"string"}],"stateMutability":"view","type":"function"},{"inputs":[],"name":"owner","outputs":[{"internalType":"address","name":"","type":"address"}],"stateMutability":"view","type":"function"},{"inputs":[],"name":"presaleActive","outputs":[{"internalType":"bool","name":"","type":"bool"}],"stateMutability":"view","type":"function"},{"inputs":[],"name":"presaleMaxPurchase","outputs":[{"internalType":"uint256","name":"","type":"uint256"}],"stateMutability":"view","type":"function"},{"inputs":[],"name":"presaleMinPurchase","outputs":[{"internalType":"uint256","name":"","type":"uint256"}],"stateMutability":"view","type":"function"},{"inputs":[],"name":"reflectionTax","outputs":[{"internalType":"uint256","name":"","type":"uint256"}],"stateMutability":"view","type":"function"},{"inputs":[],"name":"renounceOwnership","outputs":[],"stateMutability":"nonpayable","type":"function"},{"inputs":[{"internalType":"address","name":"tokenAddress","type":"address"},{"internalType":"uint256","name":"amount","type":"uint256"}],"name":"rescueTokens","outputs":[],"stateMutability":"nonpayable","type":"function"},{"inputs":[{"internalType":"address","name":"account","type":"address"},{"internalType":"bool","name":"excluded","type":"bool"}],"name":"setExcludedFromFee","outputs":[],"stateMutability":"nonpayable","type":"function"},{"inputs":[{"internalType":"bool","name":"_active","type":"bool"}],"name":"setPresaleActive","outputs":[],"stateMutability":"nonpayable","type":"function"},{"inputs":[{"internalType":"uint256","name":"_min","type":"uint256"},{"internalType":"uint256","name":"_max","type":"uint256"}],"name":"setPresaleLimits","outputs":[],"stateMutability":"nonpayable","type":"function"},{"inputs":[{"internalType":"uint256","name":"_newPrice","type":"uint256"}],"name":"setTokenPrice","outputs":[],"stateMutability":"nonpayable","type":"function"},{"inputs":[],"name":"symbol","outputs":[{"internalType":"string","name":"","type":"string"}],"stateMutability":"view","type":"function"},{"inputs":[{"internalType":"uint256","name":"reflectionAmount","type":"uint256"}],"name":"tokenFromReflection","outputs":[{"internalType":"uint256","name":"","type":"uint256"}],"stateMutability":"view","type":"function"},{"inputs":[],"name":"tokenPrice","outputs":[{"internalType":"uint256","name":"","type":"uint256"}],"stateMutability":"view","type":"function"},{"inputs":[],"name":"totalSupply","outputs":[{"internalType":"uint256","name":"","type":"uint256"}],"stateMutability":"view","type":"function"},{"inputs":[{"internalType":"address","name":"to","type":"address"},{"internalType":"uint256","name":"value","type":"uint256"}],"name":"transfer","outputs":[{"internalType":"bool","name":"","type":"bool"}],"stateMutability":"nonpayable","type":"function"},{"inputs":[{"internalType":"address","name":"from","type":"address"},{"internalType":"address","name":"to","type":"address"},{"internalType":"uint256","name":"value","type":"uint256"}],"name":"transferFrom","outputs":[{"internalType":"bool","name":"","type":"bool"}],"stateMutability":"nonpayable","type":"function"},{"inputs":[{"internalType":"address","name":"newOwner","type":"address"}],"name":"transferOwnership","outputs":[],"stateMutability":"nonpayable","type":"function"},{"inputs":[{"internalType":"address","name":"_newWallet","type":"address"}],"name":"updateDonationWallet","outputs":[],"stateMutability":"nonpayable","type":"function"},{"inputs":[{"internalType":"address","name":"_newWallet","type":"address"}],"name":"updateLiquidityWallet","outputs":[],"stateMutability":"nonpayable","type":"function"},{"inputs":[{"internalType":"uint256","name":"_reflectionTax","type":"uint256"},{"internalType":"uint256","name":"_donationTax","type":"uint256"},{"internalType":"uint256","name":"_liquidityTax","type":"uint256"}],"name":"updateTaxes","outputs":[],"stateMutability":"nonpayable","type":"function"},{"inputs":[],"name":"withdrawETH","outputs":[],"stateMutability":"nonpayable","type":"function"},{"stateMutability":"payable","type":"receive"}],"evm":{"bytecode":{"linkReferences":{},"object":"608060405260c860078190556008819055600955629896806012556013805460ff1916600117905566038d7ea4c68000601455678ac7230489e800006015553480156200004b57600080fd5b5060405162002277380380620022778339810160408190526200006e9162000354565b3360405180604001604052806008815260200167424d424c414e434560c01b815250604051806040016040528060048152602001631093509360e21b8152508160039081620000be919062000431565b506004620000cd828262000431565b5050506001600160a01b0381166200010057604051631e4fbdf760e01b8152600060048201526024015b60405180910390fd5b6200010b81620002e5565b5060016006556001600160a01b038216620001695760405162461bcd60e51b815260206004820152601760248201527f496e76616c696420646f6e6174696f6e2077616c6c65740000000000000000006044820152606401620000f7565b6001600160a01b038116620001c15760405162461bcd60e51b815260206004820152601860248201527f496e76616c6964206c69717569646974792077616c6c657400000000000000006044820152606401620000f7565b600a80546001600160a01b038085166001600160a01b031992831617909255600b805492841692909116919091179055620001fa601290565b6200020790600a62000612565b620002189064e8d4a510006200062a565b60108190556200022b9060001962000644565b620002399060001962000667565b6011819055336000818152600c6020908152604080832094909455600e81528382208054600160ff1991821681179092553084528584208054821683179055600a546001600160a01b0390811685528685208054831684179055600b54168452858420805490911690911790556010549351938452919290917fddf252ad1be2c89b69c2b068fc378daa952ba7f163c4a11628f55a4df523b3ef910160405180910390a350506200067d565b600580546001600160a01b038381166001600160a01b0319831681179093556040519116919082907f8be0079c531659141344cd1fd0a4f28419497f9722a3daafe3b4186f6b6457e090600090a35050565b80516001600160a01b03811681146200034f57600080fd5b919050565b600080604083850312156200036857600080fd5b620003738362000337565b9150620003836020840162000337565b90509250929050565b634e487b7160e01b600052604160045260246000fd5b600181811c90821680620003b757607f821691505b602082108103620003d857634e487b7160e01b600052602260045260246000fd5b50919050565b601f8211156200042c57600081815260208120601f850160051c81016020861015620004075750805b601f850160051c820191505b81811015620004285782815560010162000413565b5050505b505050565b81516001600160401b038111156200044d576200044d6200038c565b62000465816200045e8454620003a2565b84620003de565b602080601f8311600181146200049d5760008415620004845750858301515b600019600386901b1c1916600185901b17855562000428565b600085815260208120601f198616915b82811015620004ce57888601518255948401946001909101908401620004ad565b5085821015620004ed5787850151600019600388901b60f8161c191681555b5050505050600190811b01905550565b634e487b7160e01b600052601160045260246000fd5b600181815b8085111562000554578160001904821115620005385762000538620004fd565b808516156200054657918102915b93841c939080029062000518565b509250929050565b6000826200056d575060016200060c565b816200057c575060006200060c565b8160018114620005955760028114620005a057620005c0565b60019150506200060c565b60ff841115620005b457620005b4620004fd565b50506001821b6200060c565b5060208310610133831016604e8410600b8410161715620005e5575081810a6200060c565b620005f1838362000513565b8060001904821115620006085762000608620004fd565b0290505b92915050565b60006200062360ff8416836200055c565b9392505050565b80820281158282048414176200060c576200060c620004fd565b6000826200066257634e487b7160e01b600052601260045260246000fd5b500690565b818103818111156200060c576200060c620004fd565b611bea806200068d6000396000f3fe60806040526004361061021e5760003560e01c8063767fa72311610123578063be617fa0116100ab578063e086e5ec1161006f578063e086e5ec1461062f578063e37ba8f914610644578063e7b94df414610664578063f2e76c2514610684578063f2fde38b146106a457600080fd5b8063be617fa014610595578063c67b599a146105ab578063d0febe4c146105c1578063d4698016146105c9578063dd62ed3e146105e957600080fd5b806386a35f25116100f257806386a35f25146105055780638c89a0ad1461051b5780638da5cb5b1461052e57806395d89b4114610560578063a9059cbb1461057557600080fd5b8063767fa7231461047a57806378b7574f146104b95780637ff9b596146104d95780638178cb31146104ef57600080fd5b80633f8121a2116101a6578063573761981161017557806357376198146103e55780636612e66f146104055780636a61e5fc1461042557806370a0823114610445578063715018a61461046557600080fd5b80633f8121a21461035257806342966c681461037257806353135ca0146103925780635342acb4146103ac57600080fd5b806323b872dd116101ed57806323b872dd146102be5780632a088da6146102de5780632d83811914610300578063313ce567146103205780633ae2f3541461033c57600080fd5b806306fdde031461022a578063095ea7b3146102555780630a5b298f1461028557806318160ddd146102a957600080fd5b3661022557005b600080fd5b34801561023657600080fd5b5061023f6106c4565b60405161024c919061180e565b60405180910390f35b34801561026157600080fd5b50610275610270366004611878565b610756565b604051901515815260200161024c565b34801561029157600080fd5b5061029b60085481565b60405190815260200161024c565b3480156102b557600080fd5b5060105461029b565b3480156102ca57600080fd5b506102756102d93660046118a2565b610770565b3480156102ea57600080fd5b506102fe6102f93660046118de565b610794565b005b34801561030c57600080fd5b5061029b61031b3660046118f9565b610858565b34801561032c57600080fd5b506040516012815260200161024c565b34801561034857600080fd5b5061029b60075481565b34801561035e57600080fd5b506102fe61036d366004611920565b6108dc565b34801561037e57600080fd5b506102fe61038d3660046118f9565b610925565b34801561039e57600080fd5b506013546102759060ff1681565b3480156103b857600080fd5b506102756103c73660046118de565b6001600160a01b03166000908152600e602052604090205460ff1690565b3480156103f157600080fd5b506102fe610400366004611878565b610932565b34801561041157600080fd5b506102fe61042036600461193d565b610a29565b34801561043157600080fd5b506102fe6104403660046118f9565b610a94565b34801561045157600080fd5b5061029b6104603660046118de565b610b21565b34801561047157600080fd5b506102fe610b80565b34801561048657600080fd5b5061048f610b94565b6040805195151586526020860194909452928401919091526060830152608082015260a00161024c565b3480156104c557600080fd5b506102fe6104d4366004611974565b610bdb565b3480156104e557600080fd5b5061029b60125481565b3480156104fb57600080fd5b5061029b60155481565b34801561051157600080fd5b5061029b6103e881565b34801561052757600080fd5b504761029b565b34801561053a57600080fd5b506005546001600160a01b03165b6040516001600160a01b03909116815260200161024c565b34801561056c57600080fd5b5061023f610c3d565b34801561058157600080fd5b50610275610590366004611878565b610c4c565b3480156105a157600080fd5b5061029b60095481565b3480156105b757600080fd5b5061029b60145481565b6102fe610c5a565b3480156105d557600080fd5b50600b54610548906001600160a01b031681565b3480156105f557600080fd5b5061029b610604366004611996565b6001600160a01b03918216600090815260016020908152604080832093909416825291909152205490565b34801561063b57600080fd5b506102fe610e9e565b34801561065057600080fd5b506102fe61065f3660046118de565b610f37565b34801561067057600080fd5b50600a54610548906001600160a01b031681565b34801561069057600080fd5b506102fe61069f3660046119c9565b610fef565b3480156106b057600080fd5b506102fe6106bf3660046118de565b6110a7565b6060600380546106d3906119f5565b80601f01602080910402602001604051908101604052809291908181526020018280546106ff906119f5565b801561074c5780601f106107215761010080835404028352916020019161074c565b820191906000526020600020905b81548152906001019060200180831161072f57829003601f168201915b5050505050905090565b6000336107648185856110e2565b60019150505b92915050565b60003361077e8582856110ef565b61078985858561116e565b506001949350505050565b61079c6111cd565b6001600160a01b0381166107e95760405162461bcd60e51b815260206004820152600f60248201526e496e76616c6964206164647265737360881b60448201526064015b60405180910390fd5b600a80546001600160a01b0319166001600160a01b0383169081179091556000818152600e6020908152604091829020805460ff1916600117905590519182527f57b1023605a0ac1c359252eae420a9abe1922a805916aaec8d0e90110d28291491015b60405180910390a150565b60006011548211156108bf5760405162461bcd60e51b815260206004820152602a60248201527f416d6f756e74206d757374206265206c657373207468616e20746f74616c207260448201526965666c656374696f6e7360b01b60648201526084016107e0565b60006108c96111fa565b90506108d58184611a45565b9392505050565b6108e46111cd565b6013805460ff19168215159081179091556040519081527f1f1a6b0fcc71315f2c3aeddbd1f6d527595d21eea9b73160e78d6fa49b7897a69060200161084d565b61092f3382611211565b50565b61093a6111cd565b306001600160a01b038316036109925760405162461bcd60e51b815260206004820152601760248201527f43616e6e6f7420726573637565206f776e20746f6b656e00000000000000000060448201526064016107e0565b816001600160a01b031663a9059cbb6109b36005546001600160a01b031690565b6040516001600160e01b031960e084901b1681526001600160a01b039091166004820152602481018490526044016020604051808303816000875af1158015610a00573d6000803e3d6000fd5b505050506040513d601f19601f82011682018060405250810190610a249190611a67565b505050565b610a316111cd565b6001600160a01b0382166000818152600e6020908152604091829020805460ff19168515159081179091558251938452908301527f2d43abd87b27cee7b0aa8c6f7e0b4a3247b683262a83cbc2318b0df398a49aa9910160405180910390a15050565b610a9c6111cd565b60008111610aec5760405162461bcd60e51b815260206004820152601c60248201527f5072696365206d7573742062652067726561746572207468616e20300000000060448201526064016107e0565b60128190556040518181527f6b361c807733cc94a3b7bda39c1c94dcc0511e91aa47b0f7f918068e939768909060200161084d565b6001600160a01b0381166000908152600f602052604081205460ff1615610b5e57506001600160a01b03166000908152600d602052604090205490565b6001600160a01b0382166000908152600c602052604090205461076a90610858565b610b886111cd565b610b92600061124b565b565b6000806000806000601360009054906101000a900460ff16601254601454601554610bca6104606005546001600160a01b031690565b945094509450945094509091929394565b610be36111cd565b808210610c325760405162461bcd60e51b815260206004820152601960248201527f4d696e206d757374206265206c657373207468616e206d61780000000000000060448201526064016107e0565b601491909155601555565b6060600480546106d3906119f5565b60003361076481858561116e565b610c6261129d565b60135460ff16610cac5760405162461bcd60e51b815260206004820152601560248201527450726573616c65206973206e6f742061637469766560581b60448201526064016107e0565b601454341015610cf75760405162461bcd60e51b815260206004820152601660248201527542656c6f77206d696e696d756d20707572636861736560501b60448201526064016107e0565b601554341115610d495760405162461bcd60e51b815260206004820152601860248201527f45786365656473206d6178696d756d207075726368617365000000000000000060448201526064016107e0565b6000670de0b6b3a7640000610d606012600a611b68565b601254610d6d9034611b77565b610d779190611b77565b610d819190611a45565b905080610d996104606005546001600160a01b031690565b1015610de75760405162461bcd60e51b815260206004820152601b60248201527f496e73756666696369656e742070726573616c6520746f6b656e73000000000060448201526064016107e0565b610e03610dfc6005546001600160a01b031690565b33836112c7565b604080513481526020810183905233917f8fafebcaf9d154343dad25669bfa277f4fbacd7ac6b0c4fed522580e040a0f33910160405180910390a233610e516005546001600160a01b031690565b6001600160a01b03167fddf252ad1be2c89b69c2b068fc378daa952ba7f163c4a11628f55a4df523b3ef83604051610e8b91815260200190565b60405180910390a350610b926001600655565b610ea66111cd565b610eae61129d565b4780610ef15760405162461bcd60e51b81526020600482015260126024820152714e6f2045544820746f20776974686472617760701b60448201526064016107e0565b6005546040516001600160a01b039091169082156108fc029083906000818181858888f19350505050158015610f2b573d6000803e3d6000fd5b5050610b926001600655565b610f3f6111cd565b6001600160a01b038116610f875760405162461bcd60e51b815260206004820152600f60248201526e496e76616c6964206164647265737360881b60448201526064016107e0565b600b80546001600160a01b0319166001600160a01b0383169081179091556000818152600e6020908152604091829020805460ff1916600117905590519182527fc0f8ad2683cf240266d4f868f5b59a16c13e4a0ff63dfcfb0f0cd3843a121784910161084d565b610ff76111cd565b6103e8816110058486611b8e565b61100f9190611b8e565b11156110525760405162461bcd60e51b81526020600482015260126024820152710a8dee8c2d840e8c2f040e8dede40d0d2ced60731b60448201526064016107e0565b60078390556008829055600981905560408051848152602081018490529081018290527fbf599f0b0b785a611d748a0dfabee402e180323c72c9ed973e5cc29d23c992d89060600160405180910390a1505050565b6110af6111cd565b6001600160a01b0381166110d957604051631e4fbdf760e01b8152600060048201526024016107e0565b61092f8161124b565b610a248383836001611430565b6001600160a01b03838116600090815260016020908152604080832093861683529290522054600019811015611168578181101561115957604051637dc7a0d960e11b81526001600160a01b038416600482015260248101829052604481018390526064016107e0565b61116884848484036000611430565b50505050565b6001600160a01b03831661119857604051634b637e8f60e11b8152600060048201526024016107e0565b6001600160a01b0382166111c25760405163ec442f0560e01b8152600060048201526024016107e0565b610a24838383611505565b6005546001600160a01b03163314610b925760405163118cdaa760e01b81523360048201526024016107e0565b600060105460115461120c9190611a45565b905090565b6001600160a01b03821661123b57604051634b637e8f60e11b8152600060048201526024016107e0565b61124782600083611505565b5050565b600580546001600160a01b038381166001600160a01b0319831681179093556040519116919082907f8be0079c531659141344cd1fd0a4f28419497f9722a3daafe3b4186f6b6457e090600090a35050565b6002600654036112c057604051633ee5aeb560e01b815260040160405180910390fd5b6002600655565b60006112d16111fa565b905060006112df8284611b77565b6001600160a01b0386166000908152600c602052604081208054929350839290919061130c908490611ba1565b90915550506001600160a01b0384166000908152600c602052604081208054839290611339908490611b8e565b90915550506001600160a01b0385166000908152600f602052604090205460ff161561138d576001600160a01b0385166000908152600d602052604081208054859290611387908490611ba1565b90915550505b6001600160a01b0384166000908152600f602052604090205460ff16156113dc576001600160a01b0384166000908152600d6020526040812080548592906113d6908490611b8e565b90915550505b836001600160a01b0316856001600160a01b03167fddf252ad1be2c89b69c2b068fc378daa952ba7f163c4a11628f55a4df523b3ef8560405161142191815260200190565b60405180910390a35050505050565b6001600160a01b03841661145a5760405163e602df0560e01b8152600060048201526024016107e0565b6001600160a01b03831661148457604051634a1406b160e11b8152600060048201526024016107e0565b6001600160a01b038085166000908152600160209081526040808320938716835292905220829055801561116857826001600160a01b0316846001600160a01b03167f8c5be1e5ebec7d5bd14f71427d1e84f3dd0314c0f7b2291e5b200ac8c7c3b925846040516114f791815260200190565b60405180910390a350505050565b6001600160a01b0383166115695760405162461bcd60e51b815260206004820152602560248201527f45524332303a207472616e736665722066726f6d20746865207a65726f206164604482015264647265737360d81b60648201526084016107e0565b6001600160a01b0382166115cb5760405162461bcd60e51b815260206004820152602360248201527f45524332303a207472616e7366657220746f20746865207a65726f206164647260448201526265737360e81b60648201526084016107e0565b6000811161162d5760405162461bcd60e51b815260206004820152602960248201527f5472616e7366657220616d6f756e74206d7573742062652067726561746572206044820152687468616e207a65726f60b81b60648201526084016107e0565b6001600160a01b0383166000908152600e602052604090205460019060ff168061166f57506001600160a01b0383166000908152600e602052604090205460ff165b15611678575060005b8080156116a1575060006009546008546007546116959190611b8e565b61169f9190611b8e565b115b156117cd576000612710600754846116b99190611b77565b6116c39190611a45565b90506000612710600854856116d89190611b77565b6116e29190611a45565b90506000612710600954866116f79190611b77565b6117019190611a45565b9050600081836117118689611ba1565b61171b9190611ba1565b6117259190611ba1565b9050831561173657611736846117d8565b821561179b57600a546117549089906001600160a01b0316856112c7565b600a54604080516001600160a01b039092168252602082018590527f67a9bd2734eac78f1ac30823ea3d8e3c8b2be225836b3a4917ed0c15508f40aa910160405180910390a15b81156117b957600b546117b99089906001600160a01b0316846112c7565b6117c48888836112c7565b50505050611168565b6111688484846112c7565b60006117e26111fa565b905060006117f08284611b77565b905080601160008282546118049190611ba1565b9091555050505050565b600060208083528351808285015260005b8181101561183b5785810183015185820160400152820161181f565b506000604082860101526040601f19601f8301168501019250505092915050565b80356001600160a01b038116811461187357600080fd5b919050565b6000806040838503121561188b57600080fd5b6118948361185c565b946020939093013593505050565b6000806000606084860312156118b757600080fd5b6118c08461185c565b92506118ce6020850161185c565b9150604084013590509250925092565b6000602082840312156118f057600080fd5b6108d58261185c565b60006020828403121561190b57600080fd5b5035919050565b801515811461092f57600080fd5b60006020828403121561193257600080fd5b81356108d581611912565b6000806040838503121561195057600080fd5b6119598361185c565b9150602083013561196981611912565b809150509250929050565b6000806040838503121561198757600080fd5b50508035926020909101359150565b600080604083850312156119a957600080fd5b6119b28361185c565b91506119c06020840161185c565b90509250929050565b6000806000606084860312156119de57600080fd5b505081359360208301359350604090920135919050565b600181811c90821680611a0957607f821691505b602082108103611a2957634e487b7160e01b600052602260045260246000fd5b50919050565b634e487b7160e01b600052601160045260246000fd5b600082611a6257634e487b7160e01b600052601260045260246000fd5b500490565b600060208284031215611a7957600080fd5b81516108d581611912565b600181815b80851115611abf578160001904821115611aa557611aa5611a2f565b80851615611ab257918102915b93841c9390800290611a89565b509250929050565b600082611ad65750600161076a565b81611ae35750600061076a565b8160018114611af95760028114611b0357611b1f565b600191505061076a565b60ff841115611b1457611b14611a2f565b50506001821b61076a565b5060208310610133831016604e8410600b8410161715611b42575081810a61076a565b611b4c8383611a84565b8060001904821115611b6057611b60611a2f565b029392505050565b60006108d560ff841683611ac7565b808202811582820484141761076a5761076a611a2f565b8082018082111561076a5761076a611a2f565b8181038181111561076a5761076a611a2f56fea2646970667358221220f563e1a2c246108df7ba996df0570e008de3bb3bb7f69d4903be49bf6a52f39b64736f6c63430008140033","opcodes":"PUSH1 0x80 PUSH1 0x40 MSTORE PUSH1 0xC8 PUSH1 0x7 DUP2 SWAP1 SSTORE PUSH1 0x8 DUP2 SWAP1 SSTORE PUSH1 0x9 SSTORE PUSH3 0x989680 PUSH1 0x12 SSTORE PUSH1 0x13 DUP1 SLOAD PUSH1 0xFF NOT AND PUSH1 0x1 OR SWAP1 SSTORE PUSH7 0x38D7EA4C68000 PUSH1 0x14 SSTORE PUSH8 0x8AC7230489E80000 PUSH1 0x15 SSTORE CALLVALUE DUP1 ISZERO PUSH3 0x4B JUMPI PUSH1 0x0 DUP1 REVERT JUMPDEST POP PUSH1 0x40 MLOAD PUSH3 0x2277 CODESIZE SUB DUP1 PUSH3 0x2277 DUP4 CODECOPY DUP2 ADD PUSH1 0x40 DUP2 SWAP1 MSTORE PUSH3 0x6E SWAP2 PUSH3 0x354 JUMP JUMPDEST CALLER PUSH1 0x40 MLOAD DUP1 PUSH1 0x40 ADD PUSH1 0x40 MSTORE DUP1 PUSH1 0x8 DUP2 MSTORE PUSH1 0x20 ADD PUSH8 0x424D424C414E4345 PUSH1 0xC0 SHL DUP2 MSTORE POP PUSH1 0x40 MLOAD DUP1 PUSH1 0x40 ADD PUSH1 0x40 MSTORE DUP1 PUSH1 0x4 DUP2 MSTORE PUSH1 0x20 ADD PUSH4 0x10935093 PUSH1 0xE2 SHL DUP2 MSTORE POP DUP2 PUSH1 0x3 SWAP1 DUP2 PUSH3 0xBE SWAP2 SWAP1 PUSH3 0x431 JUMP JUMPDEST POP PUSH1 0x4 PUSH3 0xCD DUP3 DUP3 PUSH3 0x431 JUMP JUMPDEST POP POP POP PUSH1 0x1 PUSH1 0x1 PUSH1 0xA0 SHL SUB DUP2 AND PUSH3 0x100 JUMPI PUSH1 0x40 MLOAD PUSH4 0x1E4FBDF7 PUSH1 0xE0 SHL DUP2 MSTORE PUSH1 0x0 PUSH1 0x4 DUP3 ADD MSTORE PUSH1 0x24 ADD JUMPDEST PUSH1 0x40 MLOAD DUP1 SWAP2 SUB SWAP1 REVERT JUMPDEST PUSH3 0x10B DUP2 PUSH3 0x2E5 JUMP JUMPDEST POP PUSH1 0x1 PUSH1 0x6 SSTORE PUSH1 0x1 PUSH1 0x1 PUSH1 0xA0 SHL SUB DUP3 AND PUSH3 0x169 JUMPI PUSH1 0x40 MLOAD PUSH3 0x461BCD PUSH1 0xE5 SHL DUP2 MSTORE PUSH1 0x20 PUSH1 0x4 DUP3 ADD MSTORE PUSH1 0x17 PUSH1 0x24 DUP3 ADD MSTORE PUSH32 0x496E76616C696420646F6E6174696F6E2077616C6C6574000000000000000000 PUSH1 0x44 DUP3 ADD MSTORE PUSH1 0x64 ADD PUSH3 0xF7 JUMP JUMPDEST PUSH1 0x1 PUSH1 0x1 PUSH1 0xA0 SHL SUB DUP2 AND PUSH3 0x1C1 JUMPI PUSH1 0x40 MLOAD PUSH3 0x461BCD PUSH1 0xE5 SHL DUP2 MSTORE PUSH1 0x20 PUSH1 0x4 DUP3 ADD MSTORE PUSH1 0x18 PUSH1 0x24 DUP3 ADD MSTORE PUSH32 0x496E76616C6964206C69717569646974792077616C6C65740000000000000000 PUSH1 0x44 DUP3 ADD MSTORE PUSH1 0x64 ADD PUSH3 0xF7 JUMP JUMPDEST PUSH1 0xA DUP1 SLOAD PUSH1 0x1 PUSH1 0x1 PUSH1 0xA0 SHL SUB DUP1 DUP6 AND PUSH1 0x1 PUSH1 0x1 PUSH1 0xA0 SHL SUB NOT SWAP3 DUP4 AND OR SWAP1 SWAP3 SSTORE PUSH1 0xB DUP1 SLOAD SWAP3 DUP5 AND SWAP3 SWAP1 SWAP2 AND SWAP2 SWAP1 SWAP2 OR SWAP1 SSTORE PUSH3 0x1FA PUSH1 0x12 SWAP1 JUMP JUMPDEST PUSH3 0x207 SWAP1 PUSH1 0xA PUSH3 0x612 JUMP JUMPDEST PUSH3 0x218 SWAP1 PUSH5 0xE8D4A51000 PUSH3 0x62A JUMP JUMPDEST PUSH1 0x10 DUP2 SWAP1 SSTORE PUSH3 0x22B SWAP1 PUSH1 0x0 NOT PUSH3 0x644 JUMP JUMPDEST PUSH3 0x239 SWAP1 PUSH1 0x0 NOT PUSH3 0x667 JUMP JUMPDEST PUSH1 0x11 DUP2 SWAP1 SSTORE CALLER PUSH1 0x0 DUP2 DUP2 MSTORE PUSH1 0xC PUSH1 0x20 SWAP1 DUP2 MSTORE PUSH1 0x40 DUP1 DUP4 KECCAK256 SWAP5 SWAP1 SWAP5 SSTORE PUSH1 0xE DUP2 MSTORE DUP4 DUP3 KECCAK256 DUP1 SLOAD PUSH1 0x1 PUSH1 0xFF NOT SWAP2 DUP3 AND DUP2 OR SWAP1 SWAP3 SSTORE ADDRESS DUP5 MSTORE DUP6 DUP5 KECCAK256 DUP1 SLOAD DUP3 AND DUP4 OR SWAP1 SSTORE PUSH1 0xA SLOAD PUSH1 0x1 PUSH1 0x1 PUSH1 0xA0 SHL SUB SWAP1 DUP2 AND DUP6 MSTORE DUP7 DUP6 KECCAK256 DUP1 SLOAD DUP4 AND DUP5 OR SWAP1 SSTORE PUSH1 0xB SLOAD AND DUP5 MSTORE DUP6 DUP5 KECCAK256 DUP1 SLOAD SWAP1 SWAP2 AND SWAP1 SWAP2 OR SWAP1 SSTORE PUSH1 0x10 SLOAD SWAP4 MLOAD SWAP4 DUP5 MSTORE SWAP2 SWAP3 SWAP1 SWAP2 PUSH32 0xDDF252AD1BE2C89B69C2B068FC378DAA952BA7F163C4A11628F55A4DF523B3EF SWAP2 ADD PUSH1 0x40 MLOAD DUP1 SWAP2 SUB SWAP1 LOG3 POP POP PUSH3 0x67D JUMP JUMPDEST PUSH1 0x5 DUP1 SLOAD PUSH1 0x1 PUSH1 0x1 PUSH1 0xA0 SHL SUB DUP4 DUP2 AND PUSH1 0x1 PUSH1 0x1 PUSH1 0xA0 SHL SUB NOT DUP4 AND DUP2 OR SWAP1 SWAP4 SSTORE PUSH1 0x40 MLOAD SWAP2 AND SWAP2 SWAP1 DUP3 SWAP1 PUSH32 0x8BE0079C531659141344CD1FD0A4F28419497F9722A3DAAFE3B4186F6B6457E0 SWAP1 PUSH1 0x0 SWAP1 LOG3 POP POP JUMP JUMPDEST DUP1 MLOAD PUSH1 0x1 PUSH1 0x1 PUSH1 0xA0 SHL SUB DUP2 AND DUP2 EQ PUSH3 0x34F JUMPI PUSH1 0x0 DUP1 REVERT JUMPDEST SWAP2 SWAP1 POP JUMP JUMPDEST PUSH1 0x0 DUP1 PUSH1 0x40 DUP4 DUP6 SUB SLT ISZERO PUSH3 0x368 JUMPI PUSH1 0x0 DUP1 REVERT JUMPDEST PUSH3 0x373 DUP4 PUSH3 0x337 JUMP JUMPDEST SWAP2 POP PUSH3 0x383 PUSH1 0x20 DUP5 ADD PUSH3 0x337 JUMP JUMPDEST SWAP1 POP SWAP3 POP SWAP3 SWAP1 POP JUMP JUMPDEST PUSH4 0x4E487B71 PUSH1 0xE0 SHL PUSH1 0x0 MSTORE PUSH1 0x41 PUSH1 0x4 MSTORE PUSH1 0x24 PUSH1 0x0 REVERT JUMPDEST PUSH1 0x1 DUP2 DUP2 SHR SWAP1 DUP3 AND DUP1 PUSH3 0x3B7 JUMPI PUSH1 0x7F DUP3 AND SWAP2 POP JUMPDEST PUSH1 0x20 DUP3 LT DUP2 SUB PUSH3 0x3D8 JUMPI PUSH4 0x4E487B71 PUSH1 0xE0 SHL PUSH1 0x0 MSTORE PUSH1 0x22 PUSH1 0x4 MSTORE PUSH1 0x24 PUSH1 0x0 REVERT JUMPDEST POP SWAP2 SWAP1 POP JUMP JUMPDEST PUSH1 0x1F DUP3 GT ISZERO PUSH3 0x42C JUMPI PUSH1 0x0 DUP2 DUP2 MSTORE PUSH1 0x20 DUP2 KECCAK256 PUSH1 0x1F DUP6 ADD PUSH1 0x5 SHR DUP2 ADD PUSH1 0x20 DUP7 LT ISZERO PUSH3 0x407 JUMPI POP DUP1 JUMPDEST PUSH1 0x1F DUP6 ADD PUSH1 0x5 SHR DUP3 ADD SWAP2 POP JUMPDEST DUP2 DUP2 LT ISZERO PUSH3 0x428 JUMPI DUP3 DUP2 SSTORE PUSH1 0x1 ADD PUSH3 0x413 JUMP JUMPDEST POP POP POP JUMPDEST POP POP POP JUMP JUMPDEST DUP2 MLOAD PUSH1 0x1 PUSH1 0x1 PUSH1 0x40 SHL SUB DUP2 GT ISZERO PUSH3 0x44D JUMPI PUSH3 0x44D PUSH3 0x38C JUMP JUMPDEST PUSH3 0x465 DUP2 PUSH3 0x45E DUP5 SLOAD PUSH3 0x3A2 JUMP JUMPDEST DUP5 PUSH3 0x3DE JUMP JUMPDEST PUSH1 0x20 DUP1 PUSH1 0x1F DUP4 GT PUSH1 0x1 DUP2 EQ PUSH3 0x49D JUMPI PUSH1 0x0 DUP5 ISZERO PUSH3 0x484 JUMPI POP DUP6 DUP4 ADD MLOAD JUMPDEST PUSH1 0x0 NOT PUSH1 0x3 DUP7 SWAP1 SHL SHR NOT AND PUSH1 0x1 DUP6 SWAP1 SHL OR DUP6 SSTORE PUSH3 0x428 JUMP JUMPDEST PUSH1 0x0 DUP6 DUP2 MSTORE PUSH1 0x20 DUP2 KECCAK256 PUSH1 0x1F NOT DUP7 AND SWAP2 JUMPDEST DUP3 DUP2 LT ISZERO PUSH3 0x4CE JUMPI DUP9 DUP7 ADD MLOAD DUP3 SSTORE SWAP5 DUP5 ADD SWAP5 PUSH1 0x1 SWAP1 SWAP2 ADD SWAP1 DUP5 ADD PUSH3 0x4AD JUMP JUMPDEST POP DUP6 DUP3 LT ISZERO PUSH3 0x4ED JUMPI DUP8 DUP6 ADD MLOAD PUSH1 0x0 NOT PUSH1 0x3 DUP9 SWAP1 SHL PUSH1 0xF8 AND SHR NOT AND DUP2 SSTORE JUMPDEST POP POP POP POP POP PUSH1 0x1 SWAP1 DUP2 SHL ADD SWAP1 SSTORE POP JUMP JUMPDEST PUSH4 0x4E487B71 PUSH1 0xE0 SHL PUSH1 0x0 MSTORE PUSH1 0x11 PUSH1 0x4 MSTORE PUSH1 0x24 PUSH1 0x0 REVERT JUMPDEST PUSH1 0x1 DUP2 DUP2 JUMPDEST DUP1 DUP6 GT ISZERO PUSH3 0x554 JUMPI DUP2 PUSH1 0x0 NOT DIV DUP3 GT ISZERO PUSH3 0x538 JUMPI PUSH3 0x538 PUSH3 0x4FD JUMP JUMPDEST DUP1 DUP6 AND ISZERO PUSH3 0x546 JUMPI SWAP2 DUP2 MUL SWAP2 JUMPDEST SWAP4 DUP5 SHR SWAP4 SWAP1 DUP1 MUL SWAP1 PUSH3 0x518 JUMP JUMPDEST POP SWAP3 POP SWAP3 SWAP1 POP JUMP JUMPDEST PUSH1 0x0 DUP3 PUSH3 0x56D JUMPI POP PUSH1 0x1 PUSH3 0x60C JUMP JUMPDEST DUP2 PUSH3 0x57C JUMPI POP PUSH1 0x0 PUSH3 0x60C JUMP JUMPDEST DUP2 PUSH1 0x1 DUP2 EQ PUSH3 0x595 JUMPI PUSH1 0x2 DUP2 EQ PUSH3 0x5A0 JUMPI PUSH3 0x5C0 JUMP JUMPDEST PUSH1 0x1 SWAP2 POP POP PUSH3 0x60C JUMP JUMPDEST PUSH1 0xFF DUP5 GT ISZERO PUSH3 0x5B4 JUMPI PUSH3 0x5B4 PUSH3 0x4FD JUMP JUMPDEST POP POP PUSH1 0x1 DUP3 SHL PUSH3 0x60C JUMP JUMPDEST POP PUSH1 0x20 DUP4 LT PUSH2 0x133 DUP4 LT AND PUSH1 0x4E DUP5 LT PUSH1 0xB DUP5 LT AND OR ISZERO PUSH3 0x5E5 JUMPI POP DUP2 DUP2 EXP PUSH3 0x60C JUMP JUMPDEST PUSH3 0x5F1 DUP4 DUP4 PUSH3 0x513 JUMP JUMPDEST DUP1 PUSH1 0x0 NOT DIV DUP3 GT ISZERO PUSH3 0x608 JUMPI PUSH3 0x608 PUSH3 0x4FD JUMP JUMPDEST MUL SWAP1 POP JUMPDEST SWAP3 SWAP2 POP POP JUMP JUMPDEST PUSH1 0x0 PUSH3 0x623 PUSH1 0xFF DUP5 AND DUP4 PUSH3 0x55C JUMP JUMPDEST SWAP4 SWAP3 POP POP POP JUMP JUMPDEST DUP1 DUP3 MUL DUP2 ISZERO DUP3 DUP3 DIV DUP5 EQ OR PUSH3 0x60C JUMPI PUSH3 0x60C PUSH3 0x4FD JUMP JUMPDEST PUSH1 0x0 DUP3 PUSH3 0x662 JUMPI PUSH4 0x4E487B71 PUSH1 0xE0 SHL PUSH1 0x0 MSTORE PUSH1 0x12 PUSH1 0x4 MSTORE PUSH1 0x24 PUSH1 0x0 REVERT JUMPDEST POP MOD SWAP1 JUMP JUMPDEST DUP2 DUP2 SUB DUP2 DUP2 GT ISZERO PUSH3 0x60C JUMPI PUSH3 0x60C PUSH3 0x4FD JUMP JUMPDEST PUSH2 0x1BEA DUP1 PUSH3 0x68D PUSH1 0x0 CODECOPY PUSH1 0x0 RETURN INVALID PUSH1 0x80 PUSH1 0x40 MSTORE PUSH1 0x4 CALLDATASIZE LT PUSH2 0x21E JUMPI PUSH1 0x0 CALLDATALOAD PUSH1 0xE0 SHR DUP1 PUSH4 0x767FA723 GT PUSH2 0x123 JUMPI DUP1 PUSH4 0xBE617FA0 GT PUSH2 0xAB JUMPI DUP1 PUSH4 0xE086E5EC GT PUSH2 0x6F JUMPI DUP1 PUSH4 0xE086E5EC EQ PUSH2 0x62F JUMPI DUP1 PUSH4 0xE37BA8F9 EQ PUSH2 0x644 JUMPI DUP1 PUSH4 0xE7B94DF4 EQ PUSH2 0x664 JUMPI DUP1 PUSH4 0xF2E76C25 EQ PUSH2 0x684 JUMPI DUP1 PUSH4 0xF2FDE38B EQ PUSH2 0x6A4 JUMPI PUSH1 0x0 DUP1 REVERT JUMPDEST DUP1 PUSH4 0xBE617FA0 EQ PUSH2 0x595 JUMPI DUP1 PUSH4 0xC67B599A EQ PUSH2 0x5AB JUMPI DUP1 PUSH4 0xD0FEBE4C EQ PUSH2 0x5C1 JUMPI DUP1 PUSH4 0xD4698016 EQ PUSH2 0x5C9 JUMPI DUP1 PUSH4 0xDD62ED3E EQ PUSH2 0x5E9 JUMPI PUSH1 0x0 DUP1 REVERT JUMPDEST DUP1 PUSH4 0x86A35F25 GT PUSH2 0xF2 JUMPI DUP1 PUSH4 0x86A35F25 EQ PUSH2 0x505 JUMPI DUP1 PUSH4 0x8C89A0AD EQ PUSH2 0x51B JUMPI DUP1 PUSH4 0x8DA5CB5B EQ PUSH2 0x52E JUMPI DUP1 PUSH4 0x95D89B41 EQ PUSH2 0x560 JUMPI DUP1 PUSH4 0xA9059CBB EQ PUSH2 0x575 JUMPI PUSH1 0x0 DUP1 REVERT JUMPDEST DUP1 PUSH4 0x767FA723 EQ PUSH2 0x47A JUMPI DUP1 PUSH4 0x78B7574F EQ PUSH2 0x4B9 JUMPI DUP1 PUSH4 0x7FF9B596 EQ PUSH2 0x4D9 JUMPI DUP1 PUSH4 0x8178CB31 EQ PUSH2 0x4EF JUMPI PUSH1 0x0 DUP1 REVERT JUMPDEST DUP1 PUSH4 0x3F8121A2 GT PUSH2 0x1A6 JUMPI DUP1 PUSH4 0x57376198 GT PUSH2 0x175 JUMPI DUP1 PUSH4 0x57376198 EQ PUSH2 0x3E5 JUMPI DUP1 PUSH4 0x6612E66F EQ PUSH2 0x405 JUMPI DUP1 PUSH4 0x6A61E5FC EQ PUSH2 0x425 JUMPI DUP1 PUSH4 0x70A08231 EQ PUSH2 0x445 JUMPI DUP1 PUSH4 0x715018A6 EQ PUSH2 0x465 JUMPI PUSH1 0x0 DUP1 REVERT JUMPDEST DUP1 PUSH4 0x3F8121A2 EQ PUSH2 0x352 JUMPI DUP1 PUSH4 0x42966C68 EQ PUSH2 0x372 JUMPI DUP1 PUSH4 0x53135CA0 EQ PUSH2 0x392 JUMPI DUP1 PUSH4 0x5342ACB4 EQ PUSH2 0x3AC JUMPI PUSH1 0x0 DUP1 REVERT JUMPDEST DUP1 PUSH4 0x23B872DD GT PUSH2 0x1ED JUMPI DUP1 PUSH4 0x23B872DD EQ PUSH2 0x2BE JUMPI DUP1 PUSH4 0x2A088DA6 EQ PUSH2 0x2DE JUMPI DUP1 PUSH4 0x2D838119 EQ PUSH2 0x300 JUMPI DUP1 PUSH4 0x313CE567 EQ PUSH2 0x320 JUMPI DUP1 PUSH4 0x3AE2F354 EQ PUSH2 0x33C JUMPI PUSH1 0x0 DUP1 REVERT JUMPDEST DUP1 PUSH4 0x6FDDE03 EQ PUSH2 0x22A JUMPI DUP1 PUSH4 0x95EA7B3 EQ PUSH2 0x255 JUMPI DUP1 PUSH4 0xA5B298F EQ PUSH2 0x285 JUMPI DUP1 PUSH4 0x18160DDD EQ PUSH2 0x2A9 JUMPI PUSH1 0x0 DUP1 REVERT JUMPDEST CALLDATASIZE PUSH2 0x225 JUMPI STOP JUMPDEST PUSH1 0x0 DUP1 REVERT JUMPDEST CALLVALUE DUP1 ISZERO PUSH2 0x236 JUMPI PUSH1 0x0 DUP1 REVERT JUMPDEST POP PUSH2 0x23F PUSH2 0x6C4 JUMP JUMPDEST PUSH1 0x40 MLOAD PUSH2 0x24C SWAP2 SWAP1 PUSH2 0x180E JUMP JUMPDEST PUSH1 0x40 MLOAD DUP1 SWAP2 SUB SWAP1 RETURN JUMPDEST CALLVALUE DUP1 ISZERO PUSH2 0x261 JUMPI PUSH1 0x0 DUP1 REVERT JUMPDEST POP PUSH2 0x275 PUSH2 0x270 CALLDATASIZE PUSH1 0x4 PUSH2 0x1878 JUMP JUMPDEST PUSH2 0x756 JUMP JUMPDEST PUSH1 0x40 MLOAD SWAP1 ISZERO ISZERO DUP2 MSTORE PUSH1 0x20 ADD PUSH2 0x24C JUMP JUMPDEST CALLVALUE DUP1 ISZERO PUSH2 0x291 JUMPI PUSH1 0x0 DUP1 REVERT JUMPDEST POP PUSH2 0x29B PUSH1 0x8 SLOAD DUP2 JUMP JUMPDEST PUSH1 0x40 MLOAD SWAP1 DUP2 MSTORE PUSH1 0x20 ADD PUSH2 0x24C JUMP JUMPDEST CALLVALUE DUP1 ISZERO PUSH2 0x2B5 JUMPI PUSH1 0x0 DUP1 REVERT JUMPDEST POP PUSH1 0x10 SLOAD PUSH2 0x29B JUMP JUMPDEST CALLVALUE DUP1 ISZERO PUSH2 0x2CA JUMPI PUSH1 0x0 DUP1 REVERT JUMPDEST POP PUSH2 0x275 PUSH2 0x2D9 CALLDATASIZE PUSH1 0x4 PUSH2 0x18A2 JUMP JUMPDEST PUSH2 0x770 JUMP JUMPDEST CALLVALUE DUP1 ISZERO PUSH2 0x2EA JUMPI PUSH1 0x0 DUP1 REVERT JUMPDEST POP PUSH2 0x2FE PUSH2 0x2F9 CALLDATASIZE PUSH1 0x4 PUSH2 0x18DE JUMP JUMPDEST PUSH2 0x794 JUMP JUMPDEST STOP JUMPDEST CALLVALUE DUP1 ISZERO PUSH2 0x30C JUMPI PUSH1 0x0 DUP1 REVERT JUMPDEST POP PUSH2 0x29B PUSH2 0x31B CALLDATASIZE PUSH1 0x4 PUSH2 0x18F9 JUMP JUMPDEST PUSH2 0x858 JUMP JUMPDEST CALLVALUE DUP1 ISZERO PUSH2 0x32C JUMPI PUSH1 0x0 DUP1 REVERT JUMPDEST POP PUSH1 0x40 MLOAD PUSH1 0x12 DUP2 MSTORE PUSH1 0x20 ADD PUSH2 0x24C JUMP JUMPDEST CALLVALUE DUP1 ISZERO PUSH2 0x348 JUMPI PUSH1 0x0 DUP1 REVERT JUMPDEST POP PUSH2 0x29B PUSH1 0x7 SLOAD DUP2 JUMP JUMPDEST CALLVALUE DUP1 ISZERO PUSH2 0x35E JUMPI PUSH1 0x0 DUP1 REVERT JUMPDEST POP PUSH2 0x2FE PUSH2 0x36D CALLDATASIZE PUSH1 0x4 PUSH2 0x1920 JUMP JUMPDEST PUSH2 0x8DC JUMP JUMPDEST CALLVALUE DUP1 ISZERO PUSH2 0x37E JUMPI PUSH1 0x0 DUP1 REVERT JUMPDEST POP PUSH2 0x2FE PUSH2 0x38D CALLDATASIZE PUSH1 0x4 PUSH2 0x18F9 JUMP JUMPDEST PUSH2 0x925 JUMP JUMPDEST CALLVALUE DUP1 ISZERO PUSH2 0x39E JUMPI PUSH1 0x0 DUP1 REVERT JUMPDEST POP PUSH1 0x13 SLOAD PUSH2 0x275 SWAP1 PUSH1 0xFF AND DUP2 JUMP JUMPDEST CALLVALUE DUP1 ISZERO PUSH2 0x3B8 JUMPI PUSH1 0x0 DUP1 REVERT JUMPDEST POP PUSH2 0x275 PUSH2 0x3C7 CALLDATASIZE PUSH1 0x4 PUSH2 0x18DE JUMP JUMPDEST PUSH1 0x1 PUSH1 0x1 PUSH1 0xA0 SHL SUB AND PUSH1 0x0 SWAP1 DUP2 MSTORE PUSH1 0xE PUSH1 0x20 MSTORE PUSH1 0x40 SWAP1 KECCAK256 SLOAD PUSH1 0xFF AND SWAP1 JUMP JUMPDEST CALLVALUE DUP1 ISZERO PUSH2 0x3F1 JUMPI PUSH1 0x0 DUP1 REVERT JUMPDEST POP PUSH2 0x2FE PUSH2 0x400 CALLDATASIZE PUSH1 0x4 PUSH2 0x1878 JUMP JUMPDEST PUSH2 0x932 JUMP JUMPDEST CALLVALUE DUP1 ISZERO PUSH2 0x411 JUMPI PUSH1 0x0 DUP1 REVERT JUMPDEST POP PUSH2 0x2FE PUSH2 0x420 CALLDATASIZE PUSH1 0x4 PUSH2 0x193D JUMP JUMPDEST PUSH2 0xA29 JUMP JUMPDEST CALLVALUE DUP1 ISZERO PUSH2 0x431 JUMPI PUSH1 0x0 DUP1 REVERT JUMPDEST POP PUSH2 0x2FE PUSH2 0x440 CALLDATASIZE PUSH1 0x4 PUSH2 0x18F9 JUMP JUMPDEST PUSH2 0xA94 JUMP JUMPDEST CALLVALUE DUP1 ISZERO PUSH2 0x451 JUMPI PUSH1 0x0 DUP1 REVERT JUMPDEST POP PUSH2 0x29B PUSH2 0x460 CALLDATASIZE PUSH1 0x4 PUSH2 0x18DE JUMP JUMPDEST PUSH2 0xB21 JUMP JUMPDEST CALLVALUE DUP1 ISZERO PUSH2 0x471 JUMPI PUSH1 0x0 DUP1 REVERT JUMPDEST POP PUSH2 0x2FE PUSH2 0xB80 JUMP JUMPDEST CALLVALUE DUP1 ISZERO PUSH2 0x486 JUMPI PUSH1 0x0 DUP1 REVERT JUMPDEST POP PUSH2 0x48F PUSH2 0xB94 JUMP JUMPDEST PUSH1 0x40 DUP1 MLOAD SWAP6 ISZERO ISZERO DUP7 MSTORE PUSH1 0x20 DUP7 ADD SWAP5 SWAP1 SWAP5 MSTORE SWAP3 DUP5 ADD SWAP2 SWAP1 SWAP2 MSTORE PUSH1 0x60 DUP4 ADD MSTORE PUSH1 0x80 DUP3 ADD MSTORE PUSH1 0xA0 ADD PUSH2 0x24C JUMP JUMPDEST CALLVALUE DUP1 ISZERO PUSH2 0x4C5 JUMPI PUSH1 0x0 DUP1 REVERT JUMPDEST POP PUSH2 0x2FE PUSH2 0x4D4 CALLDATASIZE PUSH1 0x4 PUSH2 0x1974 JUMP JUMPDEST PUSH2 0xBDB JUMP JUMPDEST CALLVALUE DUP1 ISZERO PUSH2 0x4E5 JUMPI PUSH1 0x0 DUP1 REVERT JUMPDEST POP PUSH2 0x29B PUSH1 0x12 SLOAD DUP2 JUMP JUMPDEST CALLVALUE DUP1 ISZERO PUSH2 0x4FB JUMPI PUSH1 0x0 DUP1 REVERT JUMPDEST POP PUSH2 0x29B PUSH1 0x15 SLOAD DUP2 JUMP JUMPDEST CALLVALUE DUP1 ISZERO PUSH2 0x511 JUMPI PUSH1 0x0 DUP1 REVERT JUMPDEST POP PUSH2 0x29B PUSH2 0x3E8 DUP2 JUMP JUMPDEST CALLVALUE DUP1 ISZERO PUSH2 0x527 JUMPI PUSH1 0x0 DUP1 REVERT JUMPDEST POP SELFBALANCE PUSH2 0x29B JUMP JUMPDEST CALLVALUE DUP1 ISZERO PUSH2 0x53A JUMPI PUSH1 0x0 DUP1 REVERT JUMPDEST POP PUSH1 0x5 SLOAD PUSH1 0x1 PUSH1 0x1 PUSH1 0xA0 SHL SUB AND JUMPDEST PUSH1 0x40 MLOAD PUSH1 0x1 PUSH1 0x1 PUSH1 0xA0 SHL SUB SWAP1 SWAP2 AND DUP2 MSTORE PUSH1 0x20 ADD PUSH2 0x24C JUMP JUMPDEST CALLVALUE DUP1 ISZERO PUSH2 0x56C JUMPI PUSH1 0x0 DUP1 REVERT JUMPDEST POP PUSH2 0x23F PUSH2 0xC3D JUMP JUMPDEST CALLVALUE DUP1 ISZERO PUSH2 0x581 JUMPI PUSH1 0x0 DUP1 REVERT JUMPDEST POP PUSH2 0x275 PUSH2 0x590 CALLDATASIZE PUSH1 0x4 PUSH2 0x1878 JUMP JUMPDEST PUSH2 0xC4C JUMP JUMPDEST CALLVALUE DUP1 ISZERO PUSH2 0x5A1 JUMPI PUSH1 0x0 DUP1 REVERT JUMPDEST POP PUSH2 0x29B PUSH1 0x9 SLOAD DUP2 JUMP JUMPDEST CALLVALUE DUP1 ISZERO PUSH2 0x5B7 JUMPI PUSH1 0x0 DUP1 REVERT JUMPDEST POP PUSH2 0x29B PUSH1 0x14 SLOAD DUP2 JUMP JUMPDEST PUSH2 0x2FE PUSH2 0xC5A JUMP JUMPDEST CALLVALUE DUP1 ISZERO PUSH2 0x5D5 JUMPI PUSH1 0x0 DUP1 REVERT JUMPDEST POP PUSH1 0xB SLOAD PUSH2 0x548 SWAP1 PUSH1 0x1 PUSH1 0x1 PUSH1 0xA0 SHL SUB AND DUP2 JUMP JUMPDEST CALLVALUE DUP1 ISZERO PUSH2 0x5F5 JUMPI PUSH1 0x0 DUP1 REVERT JUMPDEST POP PUSH2 0x29B PUSH2 0x604 CALLDATASIZE PUSH1 0x4 PUSH2 0x1996 JUMP JUMPDEST PUSH1 0x1 PUSH1 0x1 PUSH1 0xA0 SHL SUB SWAP2 DUP3 AND PUSH1 0x0 SWAP1 DUP2 MSTORE PUSH1 0x1 PUSH1 0x20 SWAP1 DUP2 MSTORE PUSH1 0x40 DUP1 DUP4 KECCAK256 SWAP4 SWAP1 SWAP5 AND DUP3 MSTORE SWAP2 SWAP1 SWAP2 MSTORE KECCAK256 SLOAD SWAP1 JUMP JUMPDEST CALLVALUE DUP1 ISZERO PUSH2 0x63B JUMPI PUSH1 0x0 DUP1 REVERT JUMPDEST POP PUSH2 0x2FE PUSH2 0xE9E JUMP JUMPDEST CALLVALUE DUP1 ISZERO PUSH2 0x650 JUMPI PUSH1 0x0 DUP1 REVERT JUMPDEST POP PUSH2 0x2FE PUSH2 0x65F CALLDATASIZE PUSH1 0x4 PUSH2 0x18DE JUMP JUMPDEST PUSH2 0xF37 JUMP JUMPDEST CALLVALUE DUP1 ISZERO PUSH2 0x670 JUMPI PUSH1 0x0 DUP1 REVERT JUMPDEST POP PUSH1 0xA SLOAD PUSH2 0x548 SWAP1 PUSH1 0x1 PUSH1 0x1 PUSH1 0xA0 SHL SUB AND DUP2 JUMP JUMPDEST CALLVALUE DUP1 ISZERO PUSH2 0x690 JUMPI PUSH1 0x0 DUP1 REVERT JUMPDEST POP PUSH2 0x2FE PUSH2 0x69F CALLDATASIZE PUSH1 0x4 PUSH2 0x19C9 JUMP JUMPDEST PUSH2 0xFEF JUMP JUMPDEST CALLVALUE DUP1 ISZERO PUSH2 0x6B0 JUMPI PUSH1 0x0 DUP1 REVERT JUMPDEST POP PUSH2 0x2FE PUSH2 0x6BF CALLDATASIZE PUSH1 0x4 PUSH2 0x18DE JUMP JUMPDEST PUSH2 0x10A7 JUMP JUMPDEST PUSH1 0x60 PUSH1 0x3 DUP1 SLOAD PUSH2 0x6D3 SWAP1 PUSH2 0x19F5 JUMP JUMPDEST DUP1 PUSH1 0x1F ADD PUSH1 0x20 DUP1 SWAP2 DIV MUL PUSH1 0x20 ADD PUSH1 0x40 MLOAD SWAP1 DUP2 ADD PUSH1 0x40 MSTORE DUP1 SWAP3 SWAP2 SWAP1 DUP2 DUP2 MSTORE PUSH1 0x20 ADD DUP3 DUP1 SLOAD PUSH2 0x6FF SWAP1 PUSH2 0x19F5 JUMP JUMPDEST DUP1 ISZERO PUSH2 0x74C JUMPI DUP1 PUSH1 0x1F LT PUSH2 0x721 JUMPI PUSH2 0x100 DUP1 DUP4 SLOAD DIV MUL DUP4 MSTORE SWAP2 PUSH1 0x20 ADD SWAP2 PUSH2 0x74C JUMP JUMPDEST DUP3 ADD SWAP2 SWAP1 PUSH1 0x0 MSTORE PUSH1 0x20 PUSH1 0x0 KECCAK256 SWAP1 JUMPDEST DUP2 SLOAD DUP2 MSTORE SWAP1 PUSH1 0x1 ADD SWAP1 PUSH1 0x20 ADD DUP1 DUP4 GT PUSH2 0x72F JUMPI DUP3 SWAP1 SUB PUSH1 0x1F AND DUP3 ADD SWAP2 JUMPDEST POP POP POP POP POP SWAP1 POP SWAP1 JUMP JUMPDEST PUSH1 0x0 CALLER PUSH2 0x764 DUP2 DUP6 DUP6 PUSH2 0x10E2 JUMP JUMPDEST PUSH1 0x1 SWAP2 POP POP JUMPDEST SWAP3 SWAP2 POP POP JUMP JUMPDEST PUSH1 0x0 CALLER PUSH2 0x77E DUP6 DUP3 DUP6 PUSH2 0x10EF JUMP JUMPDEST PUSH2 0x789 DUP6 DUP6 DUP6 PUSH2 0x116E JUMP JUMPDEST POP PUSH1 0x1 SWAP5 SWAP4 POP POP POP POP JUMP JUMPDEST PUSH2 0x79C PUSH2 0x11CD JUMP JUMPDEST PUSH1 0x1 PUSH1 0x1 PUSH1 0xA0 SHL SUB DUP2 AND PUSH2 0x7E9 JUMPI PUSH1 0x40 MLOAD PUSH3 0x461BCD PUSH1 0xE5 SHL DUP2 MSTORE PUSH1 0x20 PUSH1 0x4 DUP3 ADD MSTORE PUSH1 0xF PUSH1 0x24 DUP3 ADD MSTORE PUSH15 0x496E76616C69642061646472657373 PUSH1 0x88 SHL PUSH1 0x44 DUP3 ADD MSTORE PUSH1 0x64 ADD JUMPDEST PUSH1 0x40 MLOAD DUP1 SWAP2 SUB SWAP1 REVERT JUMPDEST PUSH1 0xA DUP1 SLOAD PUSH1 0x1 PUSH1 0x1 PUSH1 0xA0 SHL SUB NOT AND PUSH1 0x1 PUSH1 0x1 PUSH1 0xA0 SHL SUB DUP4 AND SWAP1 DUP2 OR SWAP1 SWAP2 SSTORE PUSH1 0x0 DUP2 DUP2 MSTORE PUSH1 0xE PUSH1 0x20 SWAP1 DUP2 MSTORE PUSH1 0x40 SWAP2 DUP3 SWAP1 KECCAK256 DUP1 SLOAD PUSH1 0xFF NOT AND PUSH1 0x1 OR SWAP1 SSTORE SWAP1 MLOAD SWAP2 DUP3 MSTORE PUSH32 0x57B1023605A0AC1C359252EAE420A9ABE1922A805916AAEC8D0E90110D282914 SWAP2 ADD JUMPDEST PUSH1 0x40 MLOAD DUP1 SWAP2 SUB SWAP1 LOG1 POP JUMP JUMPDEST PUSH1 0x0 PUSH1 0x11 SLOAD DUP3 GT ISZERO PUSH2 0x8BF JUMPI PUSH1 0x40 MLOAD PUSH3 0x461BCD PUSH1 0xE5 SHL DUP2 MSTORE PUSH1 0x20 PUSH1 0x4 DUP3 ADD MSTORE PUSH1 0x2A PUSH1 0x24 DUP3 ADD MSTORE PUSH32 0x416D6F756E74206D757374206265206C657373207468616E20746F74616C2072 PUSH1 0x44 DUP3 ADD MSTORE PUSH10 0x65666C656374696F6E73 PUSH1 0xB0 SHL PUSH1 0x64 DUP3 ADD MSTORE PUSH1 0x84 ADD PUSH2 0x7E0 JUMP JUMPDEST PUSH1 0x0 PUSH2 0x8C9 PUSH2 0x11FA JUMP JUMPDEST SWAP1 POP PUSH2 0x8D5 DUP2 DUP5 PUSH2 0x1A45 JUMP JUMPDEST SWAP4 SWAP3 POP POP POP JUMP JUMPDEST PUSH2 0x8E4 PUSH2 0x11CD JUMP JUMPDEST PUSH1 0x13 DUP1 SLOAD PUSH1 0xFF NOT AND DUP3 ISZERO ISZERO SWAP1 DUP2 OR SWAP1 SWAP2 SSTORE PUSH1 0x40 MLOAD SWAP1 DUP2 MSTORE PUSH32 0x1F1A6B0FCC71315F2C3AEDDBD1F6D527595D21EEA9B73160E78D6FA49B7897A6 SWAP1 PUSH1 0x20 ADD PUSH2 0x84D JUMP JUMPDEST PUSH2 0x92F CALLER DUP3 PUSH2 0x1211 JUMP JUMPDEST POP JUMP JUMPDEST PUSH2 0x93A PUSH2 0x11CD JUMP JUMPDEST ADDRESS PUSH1 0x1 PUSH1 0x1 PUSH1 0xA0 SHL SUB DUP4 AND SUB PUSH2 0x992 JUMPI PUSH1 0x40 MLOAD PUSH3 0x461BCD PUSH1 0xE5 SHL DUP2 MSTORE PUSH1 0x20 PUSH1 0x4 DUP3 ADD MSTORE PUSH1 0x17 PUSH1 0x24 DUP3 ADD MSTORE PUSH32 0x43616E6E6F7420726573637565206F776E20746F6B656E000000000000000000 PUSH1 0x44 DUP3 ADD MSTORE PUSH1 0x64 ADD PUSH2 0x7E0 JUMP JUMPDEST DUP2 PUSH1 0x1 PUSH1 0x1 PUSH1 0xA0 SHL SUB AND PUSH4 0xA9059CBB PUSH2 0x9B3 PUSH1 0x5 SLOAD PUSH1 0x1 PUSH1 0x1 PUSH1 0xA0 SHL SUB AND SWAP1 JUMP JUMPDEST PUSH1 0x40 MLOAD PUSH1 0x1 PUSH1 0x1 PUSH1 0xE0 SHL SUB NOT PUSH1 0xE0 DUP5 SWAP1 SHL AND DUP2 MSTORE PUSH1 0x1 PUSH1 0x1 PUSH1 0xA0 SHL SUB SWAP1 SWAP2 AND PUSH1 0x4 DUP3 ADD MSTORE PUSH1 0x24 DUP2 ADD DUP5 SWAP1 MSTORE PUSH1 0x44 ADD PUSH1 0x20 PUSH1 0x40 MLOAD DUP1 DUP4 SUB DUP2 PUSH1 0x0 DUP8 GAS CALL ISZERO DUP1 ISZERO PUSH2 0xA00 JUMPI RETURNDATASIZE PUSH1 0x0 DUP1 RETURNDATACOPY RETURNDATASIZE PUSH1 0x0 REVERT JUMPDEST POP POP POP POP PUSH1 0x40 MLOAD RETURNDATASIZE PUSH1 0x1F NOT PUSH1 0x1F DUP3 ADD AND DUP3 ADD DUP1 PUSH1 0x40 MSTORE POP DUP2 ADD SWAP1 PUSH2 0xA24 SWAP2 SWAP1 PUSH2 0x1A67 JUMP JUMPDEST POP POP POP JUMP JUMPDEST PUSH2 0xA31 PUSH2 0x11CD JUMP JUMPDEST PUSH1 0x1 PUSH1 0x1 PUSH1 0xA0 SHL SUB DUP3 AND PUSH1 0x0 DUP2 DUP2 MSTORE PUSH1 0xE PUSH1 0x20 SWAP1 DUP2 MSTORE PUSH1 0x40 SWAP2 DUP3 SWAP1 KECCAK256 DUP1 SLOAD PUSH1 0xFF NOT AND DUP6 ISZERO ISZERO SWAP1 DUP2 OR SWAP1 SWAP2 SSTORE DUP3 MLOAD SWAP4 DUP5 MSTORE SWAP1 DUP4 ADD MSTORE PUSH32 0x2D43ABD87B27CEE7B0AA8C6F7E0B4A3247B683262A83CBC2318B0DF398A49AA9 SWAP2 ADD PUSH1 0x40 MLOAD DUP1 SWAP2 SUB SWAP1 LOG1 POP POP JUMP JUMPDEST PUSH2 0xA9C PUSH2 0x11CD JUMP JUMPDEST PUSH1 0x0 DUP2 GT PUSH2 0xAEC JUMPI PUSH1 0x40 MLOAD PUSH3 0x461BCD PUSH1 0xE5 SHL DUP2 MSTORE PUSH1 0x20 PUSH1 0x4 DUP3 ADD MSTORE PUSH1 0x1C PUSH1 0x24 DUP3 ADD MSTORE PUSH32 0x5072696365206D7573742062652067726561746572207468616E203000000000 PUSH1 0x44 DUP3 ADD MSTORE PUSH1 0x64 ADD PUSH2 0x7E0 JUMP JUMPDEST PUSH1 0x12 DUP2 SWAP1 SSTORE PUSH1 0x40 MLOAD DUP2 DUP2 MSTORE PUSH32 0x6B361C807733CC94A3B7BDA39C1C94DCC0511E91AA47B0F7F918068E93976890 SWAP1 PUSH1 0x20 ADD PUSH2 0x84D JUMP JUMPDEST PUSH1 0x1 PUSH1 0x1 PUSH1 0xA0 SHL SUB DUP2 AND PUSH1 0x0 SWAP1 DUP2 MSTORE PUSH1 0xF PUSH1 0x20 MSTORE PUSH1 0x40 DUP2 KECCAK256 SLOAD PUSH1 0xFF AND ISZERO PUSH2 0xB5E JUMPI POP PUSH1 0x1 PUSH1 0x1 PUSH1 0xA0 SHL SUB AND PUSH1 0x0 SWAP1 DUP2 MSTORE PUSH1 0xD PUSH1 0x20 MSTORE PUSH1 0x40 SWAP1 KECCAK256 SLOAD SWAP1 JUMP JUMPDEST PUSH1 0x1 PUSH1 0x1 PUSH1 0xA0 SHL SUB DUP3 AND PUSH1 0x0 SWAP1 DUP2 MSTORE PUSH1 0xC PUSH1 0x20 MSTORE PUSH1 0x40 SWAP1 KECCAK256 SLOAD PUSH2 0x76A SWAP1 PUSH2 0x858 JUMP JUMPDEST PUSH2 0xB88 PUSH2 0x11CD JUMP JUMPDEST PUSH2 0xB92 PUSH1 0x0 PUSH2 0x124B JUMP JUMPDEST JUMP JUMPDEST PUSH1 0x0 DUP1 PUSH1 0x0 DUP1 PUSH1 0x0 PUSH1 0x13 PUSH1 0x0 SWAP1 SLOAD SWAP1 PUSH2 0x100 EXP SWAP1 DIV PUSH1 0xFF AND PUSH1 0x12 SLOAD PUSH1 0x14 SLOAD PUSH1 0x15 SLOAD PUSH2 0xBCA PUSH2 0x460 PUSH1 0x5 SLOAD PUSH1 0x1 PUSH1 0x1 PUSH1 0xA0 SHL SUB AND SWAP1 JUMP JUMPDEST SWAP5 POP SWAP5 POP SWAP5 POP SWAP5 POP SWAP5 POP SWAP1 SWAP2 SWAP3 SWAP4 SWAP5 JUMP JUMPDEST PUSH2 0xBE3 PUSH2 0x11CD JUMP JUMPDEST DUP1 DUP3 LT PUSH2 0xC32 JUMPI PUSH1 0x40 MLOAD PUSH3 0x461BCD PUSH1 0xE5 SHL DUP2 MSTORE PUSH1 0x20 PUSH1 0x4 DUP3 ADD MSTORE PUSH1 0x19 PUSH1 0x24 DUP3 ADD MSTORE PUSH32 0x4D696E206D757374206265206C657373207468616E206D617800000000000000 PUSH1 0x44 DUP3 ADD MSTORE PUSH1 0x64 ADD PUSH2 0x7E0 JUMP JUMPDEST PUSH1 0x14 SWAP2 SWAP1 SWAP2 SSTORE PUSH1 0x15 SSTORE JUMP JUMPDEST PUSH1 0x60 PUSH1 0x4 DUP1 SLOAD PUSH2 0x6D3 SWAP1 PUSH2 0x19F5 JUMP JUMPDEST PUSH1 0x0 CALLER PUSH2 0x764 DUP2 DUP6 DUP6 PUSH2 0x116E JUMP JUMPDEST PUSH2 0xC62 PUSH2 0x129D JUMP JUMPDEST PUSH1 0x13 SLOAD PUSH1 0xFF AND PUSH2 0xCAC JUMPI PUSH1 0x40 MLOAD PUSH3 0x461BCD PUSH1 0xE5 SHL DUP2 MSTORE PUSH1 0x20 PUSH1 0x4 DUP3 ADD MSTORE PUSH1 0x15 PUSH1 0x24 DUP3 ADD MSTORE PUSH21 0x50726573616C65206973206E6F7420616374697665 PUSH1 0x58 SHL PUSH1 0x44 DUP3 ADD MSTORE PUSH1 0x64 ADD PUSH2 0x7E0 JUMP JUMPDEST PUSH1 0x14 SLOAD CALLVALUE LT ISZERO PUSH2 0xCF7 JUMPI PUSH1 0x40 MLOAD PUSH3 0x461BCD PUSH1 0xE5 SHL DUP2 MSTORE PUSH1 0x20 PUSH1 0x4 DUP3 ADD MSTORE PUSH1 0x16 PUSH1 0x24 DUP3 ADD MSTORE PUSH22 0x42656C6F77206D696E696D756D207075726368617365 PUSH1 0x50 SHL PUSH1 0x44 DUP3 ADD MSTORE PUSH1 0x64 ADD PUSH2 0x7E0 JUMP JUMPDEST PUSH1 0x15 SLOAD CALLVALUE GT ISZERO PUSH2 0xD49 JUMPI PUSH1 0x40 MLOAD PUSH3 0x461BCD PUSH1 0xE5 SHL DUP2 MSTORE PUSH1 0x20 PUSH1 0x4 DUP3 ADD MSTORE PUSH1 0x18 PUSH1 0x24 DUP3 ADD MSTORE PUSH32 0x45786365656473206D6178696D756D2070757263686173650000000000000000 PUSH1 0x44 DUP3 ADD MSTORE PUSH1 0x64 ADD PUSH2 0x7E0 JUMP JUMPDEST PUSH1 0x0 PUSH8 0xDE0B6B3A7640000 PUSH2 0xD60 PUSH1 0x12 PUSH1 0xA PUSH2 0x1B68 JUMP JUMPDEST PUSH1 0x12 SLOAD PUSH2 0xD6D SWAP1 CALLVALUE PUSH2 0x1B77 JUMP JUMPDEST PUSH2 0xD77 SWAP2 SWAP1 PUSH2 0x1B77 JUMP JUMPDEST PUSH2 0xD81 SWAP2 SWAP1 PUSH2 0x1A45 JUMP JUMPDEST SWAP1 POP DUP1 PUSH2 0xD99 PUSH2 0x460 PUSH1 0x5 SLOAD PUSH1 0x1 PUSH1 0x1 PUSH1 0xA0 SHL SUB AND SWAP1 JUMP JUMPDEST LT ISZERO PUSH2 0xDE7 JUMPI PUSH1 0x40 MLOAD PUSH3 0x461BCD PUSH1 0xE5 SHL DUP2 MSTORE PUSH1 0x20 PUSH1 0x4 DUP3 ADD MSTORE PUSH1 0x1B PUSH1 0x24 DUP3 ADD MSTORE PUSH32 0x496E73756666696369656E742070726573616C6520746F6B656E730000000000 PUSH1 0x44 DUP3 ADD MSTORE PUSH1 0x64 ADD PUSH2 0x7E0 JUMP JUMPDEST PUSH2 0xE03 PUSH2 0xDFC PUSH1 0x5 SLOAD PUSH1 0x1 PUSH1 0x1 PUSH1 0xA0 SHL SUB AND SWAP1 JUMP JUMPDEST CALLER DUP4 PUSH2 0x12C7 JUMP JUMPDEST PUSH1 0x40 DUP1 MLOAD CALLVALUE DUP2 MSTORE PUSH1 0x20 DUP2 ADD DUP4 SWAP1 MSTORE CALLER SWAP2 PUSH32 0x8FAFEBCAF9D154343DAD25669BFA277F4FBACD7AC6B0C4FED522580E040A0F33 SWAP2 ADD PUSH1 0x40 MLOAD DUP1 SWAP2 SUB SWAP1 LOG2 CALLER PUSH2 0xE51 PUSH1 0x5 SLOAD PUSH1 0x1 PUSH1 0x1 PUSH1 0xA0 SHL SUB AND SWAP1 JUMP JUMPDEST PUSH1 0x1 PUSH1 0x1 PUSH1 0xA0 SHL SUB AND PUSH32 0xDDF252AD1BE2C89B69C2B068FC378DAA952BA7F163C4A11628F55A4DF523B3EF DUP4 PUSH1 0x40 MLOAD PUSH2 0xE8B SWAP2 DUP2 MSTORE PUSH1 0x20 ADD SWAP1 JUMP JUMPDEST PUSH1 0x40 MLOAD DUP1 SWAP2 SUB SWAP1 LOG3 POP PUSH2 0xB92 PUSH1 0x1 PUSH1 0x6 SSTORE JUMP JUMPDEST PUSH2 0xEA6 PUSH2 0x11CD JUMP JUMPDEST PUSH2 0xEAE PUSH2 0x129D JUMP JUMPDEST SELFBALANCE DUP1 PUSH2 0xEF1 JUMPI PUSH1 0x40 MLOAD PUSH3 0x461BCD PUSH1 0xE5 SHL DUP2 MSTORE PUSH1 0x20 PUSH1 0x4 DUP3 ADD MSTORE PUSH1 0x12 PUSH1 0x24 DUP3 ADD MSTORE PUSH18 0x4E6F2045544820746F207769746864726177 PUSH1 0x70 SHL PUSH1 0x44 DUP3 ADD MSTORE PUSH1 0x64 ADD PUSH2 0x7E0 JUMP JUMPDEST PUSH1 0x5 SLOAD PUSH1 0x40 MLOAD PUSH1 0x1 PUSH1 0x1 PUSH1 0xA0 SHL SUB SWAP1 SWAP2 AND SWAP1 DUP3 ISZERO PUSH2 0x8FC MUL SWAP1 DUP4 SWAP1 PUSH1 0x0 DUP2 DUP2 DUP2 DUP6 DUP9 DUP9 CALL SWAP4 POP POP POP POP ISZERO DUP1 ISZERO PUSH2 0xF2B JUMPI RETURNDATASIZE PUSH1 0x0 DUP1 RETURNDATACOPY RETURNDATASIZE PUSH1 0x0 REVERT JUMPDEST POP POP PUSH2 0xB92 PUSH1 0x1 PUSH1 0x6 SSTORE JUMP JUMPDEST PUSH2 0xF3F PUSH2 0x11CD JUMP JUMPDEST PUSH1 0x1 PUSH1 0x1 PUSH1 0xA0 SHL SUB DUP2 AND PUSH2 0xF87 JUMPI PUSH1 0x40 MLOAD PUSH3 0x461BCD PUSH1 0xE5 SHL DUP2 MSTORE PUSH1 0x20 PUSH1 0x4 DUP3 ADD MSTORE PUSH1 0xF PUSH1 0x24 DUP3 ADD MSTORE PUSH15 0x496E76616C69642061646472657373 PUSH1 0x88 SHL PUSH1 0x44 DUP3 ADD MSTORE PUSH1 0x64 ADD PUSH2 0x7E0 JUMP JUMPDEST PUSH1 0xB DUP1 SLOAD PUSH1 0x1 PUSH1 0x1 PUSH1 0xA0 SHL SUB NOT AND PUSH1 0x1 PUSH1 0x1 PUSH1 0xA0 SHL SUB DUP4 AND SWAP1 DUP2 OR SWAP1 SWAP2 SSTORE PUSH1 0x0 DUP2 DUP2 MSTORE PUSH1 0xE PUSH1 0x20 SWAP1 DUP2 MSTORE PUSH1 0x40 SWAP2 DUP3 SWAP1 KECCAK256 DUP1 SLOAD PUSH1 0xFF NOT AND PUSH1 0x1 OR SWAP1 SSTORE SWAP1 MLOAD SWAP2 DUP3 MSTORE PUSH32 0xC0F8AD2683CF240266D4F868F5B59A16C13E4A0FF63DFCFB0F0CD3843A121784 SWAP2 ADD PUSH2 0x84D JUMP JUMPDEST PUSH2 0xFF7 PUSH2 0x11CD JUMP JUMPDEST PUSH2 0x3E8 DUP2 PUSH2 0x1005 DUP5 DUP7 PUSH2 0x1B8E JUMP JUMPDEST PUSH2 0x100F SWAP2 SWAP1 PUSH2 0x1B8E JUMP JUMPDEST GT ISZERO PUSH2 0x1052 JUMPI PUSH1 0x40 MLOAD PUSH3 0x461BCD PUSH1 0xE5 SHL DUP2 MSTORE PUSH1 0x20 PUSH1 0x4 DUP3 ADD MSTORE PUSH1 0x12 PUSH1 0x24 DUP3 ADD MSTORE PUSH18 0xA8DEE8C2D840E8C2F040E8DEDE40D0D2CED PUSH1 0x73 SHL PUSH1 0x44 DUP3 ADD MSTORE PUSH1 0x64 ADD PUSH2 0x7E0 JUMP JUMPDEST PUSH1 0x7 DUP4 SWAP1 SSTORE PUSH1 0x8 DUP3 SWAP1 SSTORE PUSH1 0x9 DUP2 SWAP1 SSTORE PUSH1 0x40 DUP1 MLOAD DUP5 DUP2 MSTORE PUSH1 0x20 DUP2 ADD DUP5 SWAP1 MSTORE SWAP1 DUP2 ADD DUP3 SWAP1 MSTORE PUSH32 0xBF599F0B0B785A611D748A0DFABEE402E180323C72C9ED973E5CC29D23C992D8 SWAP1 PUSH1 0x60 ADD PUSH1 0x40 MLOAD DUP1 SWAP2 SUB SWAP1 LOG1 POP POP POP JUMP JUMPDEST PUSH2 0x10AF PUSH2 0x11CD JUMP JUMPDEST PUSH1 0x1 PUSH1 0x1 PUSH1 0xA0 SHL SUB DUP2 AND PUSH2 0x10D9 JUMPI PUSH1 0x40 MLOAD PUSH4 0x1E4FBDF7 PUSH1 0xE0 SHL DUP2 MSTORE PUSH1 0x0 PUSH1 0x4 DUP3 ADD MSTORE PUSH1 0x24 ADD PUSH2 0x7E0 JUMP JUMPDEST PUSH2 0x92F DUP2 PUSH2 0x124B JUMP JUMPDEST PUSH2 0xA24 DUP4 DUP4 DUP4 PUSH1 0x1 PUSH2 0x1430 JUMP JUMPDEST PUSH1 0x1 PUSH1 0x1 PUSH1 0xA0 SHL SUB DUP4 DUP2 AND PUSH1 0x0 SWAP1 DUP2 MSTORE PUSH1 0x1 PUSH1 0x20 SWAP1 DUP2 MSTORE PUSH1 0x40 DUP1 DUP4 KECCAK256 SWAP4 DUP7 AND DUP4 MSTORE SWAP3 SWAP1 MSTORE KECCAK256 SLOAD PUSH1 0x0 NOT DUP2 LT ISZERO PUSH2 0x1168 JUMPI DUP2 DUP2 LT ISZERO PUSH2 0x1159 JUMPI PUSH1 0x40 MLOAD PUSH4 0x7DC7A0D9 PUSH1 0xE1 SHL DUP2 MSTORE PUSH1 0x1 PUSH1 0x1 PUSH1 0xA0 SHL SUB DUP5 AND PUSH1 0x4 DUP3 ADD MSTORE PUSH1 0x24 DUP2 ADD DUP3 SWAP1 MSTORE PUSH1 0x44 DUP2 ADD DUP4 SWAP1 MSTORE PUSH1 0x64 ADD PUSH2 0x7E0 JUMP JUMPDEST PUSH2 0x1168 DUP5 DUP5 DUP5 DUP5 SUB PUSH1 0x0 PUSH2 0x1430 JUMP JUMPDEST POP POP POP POP JUMP JUMPDEST PUSH1 0x1 PUSH1 0x1 PUSH1 0xA0 SHL SUB DUP4 AND PUSH2 0x1198 JUMPI PUSH1 0x40 MLOAD PUSH4 0x4B637E8F PUSH1 0xE1 SHL DUP2 MSTORE PUSH1 0x0 PUSH1 0x4 DUP3 ADD MSTORE PUSH1 0x24 ADD PUSH2 0x7E0 JUMP JUMPDEST PUSH1 0x1 PUSH1 0x1 PUSH1 0xA0 SHL SUB DUP3 AND PUSH2 0x11C2 JUMPI PUSH1 0x40 MLOAD PUSH4 0xEC442F05 PUSH1 0xE0 SHL DUP2 MSTORE PUSH1 0x0 PUSH1 0x4 DUP3 ADD MSTORE PUSH1 0x24 ADD PUSH2 0x7E0 JUMP JUMPDEST PUSH2 0xA24 DUP4 DUP4 DUP4 PUSH2 0x1505 JUMP JUMPDEST PUSH1 0x5 SLOAD PUSH1 0x1 PUSH1 0x1 PUSH1 0xA0 SHL SUB AND CALLER EQ PUSH2 0xB92 JUMPI PUSH1 0x40 MLOAD PUSH4 0x118CDAA7 PUSH1 0xE0 SHL DUP2 MSTORE CALLER PUSH1 0x4 DUP3 ADD MSTORE PUSH1 0x24 ADD PUSH2 0x7E0 JUMP JUMPDEST PUSH1 0x0 PUSH1 0x10 SLOAD PUSH1 0x11 SLOAD PUSH2 0x120C SWAP2 SWAP1 PUSH2 0x1A45 JUMP JUMPDEST SWAP1 POP SWAP1 JUMP JUMPDEST PUSH1 0x1 PUSH1 0x1 PUSH1 0xA0 SHL SUB DUP3 AND PUSH2 0x123B JUMPI PUSH1 0x40 MLOAD PUSH4 0x4B637E8F PUSH1 0xE1 SHL DUP2 MSTORE PUSH1 0x0 PUSH1 0x4 DUP3 ADD MSTORE PUSH1 0x24 ADD PUSH2 0x7E0 JUMP JUMPDEST PUSH2 0x1247 DUP3 PUSH1 0x0 DUP4 PUSH2 0x1505 JUMP JUMPDEST POP POP JUMP JUMPDEST PUSH1 0x5 DUP1 SLOAD PUSH1 0x1 PUSH1 0x1 PUSH1 0xA0 SHL SUB DUP4 DUP2 AND PUSH1 0x1 PUSH1 0x1 PUSH1 0xA0 SHL SUB NOT DUP4 AND DUP2 OR SWAP1 SWAP4 SSTORE PUSH1 0x40 MLOAD SWAP2 AND SWAP2 SWAP1 DUP3 SWAP1 PUSH32 0x8BE0079C531659141344CD1FD0A4F28419497F9722A3DAAFE3B4186F6B6457E0 SWAP1 PUSH1 0x0 SWAP1 LOG3 POP POP JUMP JUMPDEST PUSH1 0x2 PUSH1 0x6 SLOAD SUB PUSH2 0x12C0 JUMPI PUSH1 0x40 MLOAD PUSH4 0x3EE5AEB5 PUSH1 0xE0 SHL DUP2 MSTORE PUSH1 0x4 ADD PUSH1 0x40 MLOAD DUP1 SWAP2 SUB SWAP1 REVERT JUMPDEST PUSH1 0x2 PUSH1 0x6 SSTORE JUMP JUMPDEST PUSH1 0x0 PUSH2 0x12D1 PUSH2 0x11FA JUMP JUMPDEST SWAP1 POP PUSH1 0x0 PUSH2 0x12DF DUP3 DUP5 PUSH2 0x1B77 JUMP JUMPDEST PUSH1 0x1 PUSH1 0x1 PUSH1 0xA0 SHL SUB DUP7 AND PUSH1 0x0 SWAP1 DUP2 MSTORE PUSH1 0xC PUSH1 0x20 MSTORE PUSH1 0x40 DUP2 KECCAK256 DUP1 SLOAD SWAP3 SWAP4 POP DUP4 SWAP3 SWAP1 SWAP2 SWAP1 PUSH2 0x130C SWAP1 DUP5 SWAP1 PUSH2 0x1BA1 JUMP JUMPDEST SWAP1 SWAP2 SSTORE POP POP PUSH1 0x1 PUSH1 0x1 PUSH1 0xA0 SHL SUB DUP5 AND PUSH1 0x0 SWAP1 DUP2 MSTORE PUSH1 0xC PUSH1 0x20 MSTORE PUSH1 0x40 DUP2 KECCAK256 DUP1 SLOAD DUP4 SWAP3 SWAP1 PUSH2 0x1339 SWAP1 DUP5 SWAP1 PUSH2 0x1B8E JUMP JUMPDEST SWAP1 SWAP2 SSTORE POP POP PUSH1 0x1 PUSH1 0x1 PUSH1 0xA0 SHL SUB DUP6 AND PUSH1 0x0 SWAP1 DUP2 MSTORE PUSH1 0xF PUSH1 0x20 MSTORE PUSH1 0x40 SWAP1 KECCAK256 SLOAD PUSH1 0xFF AND ISZERO PUSH2 0x138D JUMPI PUSH1 0x1 PUSH1 0x1 PUSH1 0xA0 SHL SUB DUP6 AND PUSH1 0x0 SWAP1 DUP2 MSTORE PUSH1 0xD PUSH1 0x20 MSTORE PUSH1 0x40 DUP2 KECCAK256 DUP1 SLOAD DUP6 SWAP3 SWAP1 PUSH2 0x1387 SWAP1 DUP5 SWAP1 PUSH2 0x1BA1 JUMP JUMPDEST SWAP1 SWAP2 SSTORE POP POP JUMPDEST PUSH1 0x1 PUSH1 0x1 PUSH1 0xA0 SHL SUB DUP5 AND PUSH1 0x0 SWAP1 DUP2 MSTORE PUSH1 0xF PUSH1 0x20 MSTORE PUSH1 0x40 SWAP1 KECCAK256 SLOAD PUSH1 0xFF AND ISZERO PUSH2 0x13DC JUMPI PUSH1 0x1 PUSH1 0x1 PUSH1 0xA0 SHL SUB DUP5 AND PUSH1 0x0 SWAP1 DUP2 MSTORE PUSH1 0xD PUSH1 0x20 MSTORE PUSH1 0x40 DUP2 KECCAK256 DUP1 SLOAD DUP6 SWAP3 SWAP1 PUSH2 0x13D6 SWAP1 DUP5 SWAP1 PUSH2 0x1B8E JUMP JUMPDEST SWAP1 SWAP2 SSTORE POP POP JUMPDEST DUP4 PUSH1 0x1 PUSH1 0x1 PUSH1 0xA0 SHL SUB AND DUP6 PUSH1 0x1 PUSH1 0x1 PUSH1 0xA0 SHL SUB AND PUSH32 0xDDF252AD1BE2C89B69C2B068FC378DAA952BA7F163C4A11628F55A4DF523B3EF DUP6 PUSH1 0x40 MLOAD PUSH2 0x1421 SWAP2 DUP2 MSTORE PUSH1 0x20 ADD SWAP1 JUMP JUMPDEST PUSH1 0x40 MLOAD DUP1 SWAP2 SUB SWAP1 LOG3 POP POP POP POP POP JUMP JUMPDEST PUSH1 0x1 PUSH1 0x1 PUSH1 0xA0 SHL SUB DUP5 AND PUSH2 0x145A JUMPI PUSH1 0x40 MLOAD PUSH4 0xE602DF05 PUSH1 0xE0 SHL DUP2 MSTORE PUSH1 0x0 PUSH1 0x4 DUP3 ADD MSTORE PUSH1 0x24 ADD PUSH2 0x7E0 JUMP JUMPDEST PUSH1 0x1 PUSH1 0x1 PUSH1 0xA0 SHL SUB DUP4 AND PUSH2 0x1484 JUMPI PUSH1 0x40 MLOAD PUSH4 0x4A1406B1 PUSH1 0xE1 SHL DUP2 MSTORE PUSH1 0x0 PUSH1 0x4 DUP3 ADD MSTORE PUSH1 0x24 ADD PUSH2 0x7E0 JUMP JUMPDEST PUSH1 0x1 PUSH1 0x1 PUSH1 0xA0 SHL SUB DUP1 DUP6 AND PUSH1 0x0 SWAP1 DUP2 MSTORE PUSH1 0x1 PUSH1 0x20 SWAP1 DUP2 MSTORE PUSH1 0x40 DUP1 DUP4 KECCAK256 SWAP4 DUP8 AND DUP4 MSTORE SWAP3 SWAP1 MSTORE KECCAK256 DUP3 SWAP1 SSTORE DUP1 ISZERO PUSH2 0x1168 JUMPI DUP3 PUSH1 0x1 PUSH1 0x1 PUSH1 0xA0 SHL SUB AND DUP5 PUSH1 0x1 PUSH1 0x1 PUSH1 0xA0 SHL SUB AND PUSH32 0x8C5BE1E5EBEC7D5BD14F71427D1E84F3DD0314C0F7B2291E5B200AC8C7C3B925 DUP5 PUSH1 0x40 MLOAD PUSH2 0x14F7 SWAP2 DUP2 MSTORE PUSH1 0x20 ADD SWAP1 JUMP JUMPDEST PUSH1 0x40 MLOAD DUP1 SWAP2 SUB SWAP1 LOG3 POP POP POP POP JUMP JUMPDEST PUSH1 0x1 PUSH1 0x1 PUSH1 0xA0 SHL SUB DUP4 AND PUSH2 0x1569 JUMPI PUSH1 0x40 MLOAD PUSH3 0x461BCD PUSH1 0xE5 SHL DUP2 MSTORE PUSH1 0x20 PUSH1 0x4 DUP3 ADD MSTORE PUSH1 0x25 PUSH1 0x24 DUP3 ADD MSTORE PUSH32 0x45524332303A207472616E736665722066726F6D20746865207A65726F206164 PUSH1 0x44 DUP3 ADD MSTORE PUSH5 0x6472657373 PUSH1 0xD8 SHL PUSH1 0x64 DUP3 ADD MSTORE PUSH1 0x84 ADD PUSH2 0x7E0 JUMP JUMPDEST PUSH1 0x1 PUSH1 0x1 PUSH1 0xA0 SHL SUB DUP3 AND PUSH2 0x15CB JUMPI PUSH1 0x40 MLOAD PUSH3 0x461BCD PUSH1 0xE5 SHL DUP2 MSTORE PUSH1 0x20 PUSH1 0x4 DUP3 ADD MSTORE PUSH1 0x23 PUSH1 0x24 DUP3 ADD MSTORE PUSH32 0x45524332303A207472616E7366657220746F20746865207A65726F2061646472 PUSH1 0x44 DUP3 ADD MSTORE PUSH3 0x657373 PUSH1 0xE8 SHL PUSH1 0x64 DUP3 ADD MSTORE PUSH1 0x84 ADD PUSH2 0x7E0 JUMP JUMPDEST PUSH1 0x0 DUP2 GT PUSH2 0x162D JUMPI PUSH1 0x40 MLOAD PUSH3 0x461BCD PUSH1 0xE5 SHL DUP2 MSTORE PUSH1 0x20 PUSH1 0x4 DUP3 ADD MSTORE PUSH1 0x29 PUSH1 0x24 DUP3 ADD MSTORE PUSH32 0x5472616E7366657220616D6F756E74206D757374206265206772656174657220 PUSH1 0x44 DUP3 ADD MSTORE PUSH9 0x7468616E207A65726F PUSH1 0xB8 SHL PUSH1 0x64 DUP3 ADD MSTORE PUSH1 0x84 ADD PUSH2 0x7E0 JUMP JUMPDEST PUSH1 0x1 PUSH1 0x1 PUSH1 0xA0 SHL SUB DUP4 AND PUSH1 0x0 SWAP1 DUP2 MSTORE PUSH1 0xE PUSH1 0x20 MSTORE PUSH1 0x40 SWAP1 KECCAK256 SLOAD PUSH1 0x1 SWAP1 PUSH1 0xFF AND DUP1 PUSH2 0x166F JUMPI POP PUSH1 0x1 PUSH1 0x1 PUSH1 0xA0 SHL SUB DUP4 AND PUSH1 0x0 SWAP1 DUP2 MSTORE PUSH1 0xE PUSH1 0x20 MSTORE PUSH1 0x40 SWAP1 KECCAK256 SLOAD PUSH1 0xFF AND JUMPDEST ISZERO PUSH2 0x1678 JUMPI POP PUSH1 0x0 JUMPDEST DUP1 DUP1 ISZERO PUSH2 0x16A1 JUMPI POP PUSH1 0x0 PUSH1 0x9 SLOAD PUSH1 0x8 SLOAD PUSH1 0x7 SLOAD PUSH2 0x1695 SWAP2 SWAP1 PUSH2 0x1B8E JUMP JUMPDEST PUSH2 0x169F SWAP2 SWAP1 PUSH2 0x1B8E JUMP JUMPDEST GT JUMPDEST ISZERO PUSH2 0x17CD JUMPI PUSH1 0x0 PUSH2 0x2710 PUSH1 0x7 SLOAD DUP5 PUSH2 0x16B9 SWAP2 SWAP1 PUSH2 0x1B77 JUMP JUMPDEST PUSH2 0x16C3 SWAP2 SWAP1 PUSH2 0x1A45 JUMP JUMPDEST SWAP1 POP PUSH1 0x0 PUSH2 0x2710 PUSH1 0x8 SLOAD DUP6 PUSH2 0x16D8 SWAP2 SWAP1 PUSH2 0x1B77 JUMP JUMPDEST PUSH2 0x16E2 SWAP2 SWAP1 PUSH2 0x1A45 JUMP JUMPDEST SWAP1 POP PUSH1 0x0 PUSH2 0x2710 PUSH1 0x9 SLOAD DUP7 PUSH2 0x16F7 SWAP2 SWAP1 PUSH2 0x1B77 JUMP JUMPDEST PUSH2 0x1701 SWAP2 SWAP1 PUSH2 0x1A45 JUMP JUMPDEST SWAP1 POP PUSH1 0x0 DUP2 DUP4 PUSH2 0x1711 DUP7 DUP10 PUSH2 0x1BA1 JUMP JUMPDEST PUSH2 0x171B SWAP2 SWAP1 PUSH2 0x1BA1 JUMP JUMPDEST PUSH2 0x1725 SWAP2 SWAP1 PUSH2 0x1BA1 JUMP JUMPDEST SWAP1 POP DUP4 ISZERO PUSH2 0x1736 JUMPI PUSH2 0x1736 DUP5 PUSH2 0x17D8 JUMP JUMPDEST DUP3 ISZERO PUSH2 0x179B JUMPI PUSH1 0xA SLOAD PUSH2 0x1754 SWAP1 DUP10 SWAP1 PUSH1 0x1 PUSH1 0x1 PUSH1 0xA0 SHL SUB AND DUP6 PUSH2 0x12C7 JUMP JUMPDEST PUSH1 0xA SLOAD PUSH1 0x40 DUP1 MLOAD PUSH1 0x1 PUSH1 0x1 PUSH1 0xA0 SHL SUB SWAP1 SWAP3 AND DUP3 MSTORE PUSH1 0x20 DUP3 ADD DUP6 SWAP1 MSTORE PUSH32 0x67A9BD2734EAC78F1AC30823EA3D8E3C8B2BE225836B3A4917ED0C15508F40AA SWAP2 ADD PUSH1 0x40 MLOAD DUP1 SWAP2 SUB SWAP1 LOG1 JUMPDEST DUP2 ISZERO PUSH2 0x17B9 JUMPI PUSH1 0xB SLOAD PUSH2 0x17B9 SWAP1 DUP10 SWAP1 PUSH1 0x1 PUSH1 0x1 PUSH1 0xA0 SHL SUB AND DUP5 PUSH2 0x12C7 JUMP JUMPDEST PUSH2 0x17C4 DUP9 DUP9 DUP4 PUSH2 0x12C7 JUMP JUMPDEST POP POP POP POP PUSH2 0x1168 JUMP JUMPDEST PUSH2 0x1168 DUP5 DUP5 DUP5 PUSH2 0x12C7 JUMP JUMPDEST PUSH1 0x0 PUSH2 0x17E2 PUSH2 0x11FA JUMP JUMPDEST SWAP1 POP PUSH1 0x0 PUSH2 0x17F0 DUP3 DUP5 PUSH2 0x1B77 JUMP JUMPDEST SWAP1 POP DUP1 PUSH1 0x11 PUSH1 0x0 DUP3 DUP3 SLOAD PUSH2 0x1804 SWAP2 SWAP1 PUSH2 0x1BA1 JUMP JUMPDEST SWAP1 SWAP2 SSTORE POP POP POP POP POP JUMP JUMPDEST PUSH1 0x0 PUSH1 0x20 DUP1 DUP4 MSTORE DUP4 MLOAD DUP1 DUP3 DUP6 ADD MSTORE PUSH1 0x0 JUMPDEST DUP2 DUP2 LT ISZERO PUSH2 0x183B JUMPI DUP6 DUP2 ADD DUP4 ADD MLOAD DUP6 DUP3 ADD PUSH1 0x40 ADD MSTORE DUP3 ADD PUSH2 0x181F JUMP JUMPDEST POP PUSH1 0x0 PUSH1 0x40 DUP3 DUP7 ADD ADD MSTORE PUSH1 0x40 PUSH1 0x1F NOT PUSH1 0x1F DUP4 ADD AND DUP6 ADD ADD SWAP3 POP POP POP SWAP3 SWAP2 POP POP JUMP JUMPDEST DUP1 CALLDATALOAD PUSH1 0x1 PUSH1 0x1 PUSH1 0xA0 SHL SUB DUP2 AND DUP2 EQ PUSH2 0x1873 JUMPI PUSH1 0x0 DUP1 REVERT JUMPDEST SWAP2 SWAP1 POP JUMP JUMPDEST PUSH1 0x0 DUP1 PUSH1 0x40 DUP4 DUP6 SUB SLT ISZERO PUSH2 0x188B JUMPI PUSH1 0x0 DUP1 REVERT JUMPDEST PUSH2 0x1894 DUP4 PUSH2 0x185C JUMP JUMPDEST SWAP5 PUSH1 0x20 SWAP4 SWAP1 SWAP4 ADD CALLDATALOAD SWAP4 POP POP POP JUMP JUMPDEST PUSH1 0x0 DUP1 PUSH1 0x0 PUSH1 0x60 DUP5 DUP7 SUB SLT ISZERO PUSH2 0x18B7 JUMPI PUSH1 0x0 DUP1 REVERT JUMPDEST PUSH2 0x18C0 DUP5 PUSH2 0x185C JUMP JUMPDEST SWAP3 POP PUSH2 0x18CE PUSH1 0x20 DUP6 ADD PUSH2 0x185C JUMP JUMPDEST SWAP2 POP PUSH1 0x40 DUP5 ADD CALLDATALOAD SWAP1 POP SWAP3 POP SWAP3 POP SWAP3 JUMP JUMPDEST PUSH1 0x0 PUSH1 0x20 DUP3 DUP5 SUB SLT ISZERO PUSH2 0x18F0 JUMPI PUSH1 0x0 DUP1 REVERT JUMPDEST PUSH2 0x8D5 DUP3 PUSH2 0x185C JUMP JUMPDEST PUSH1 0x0 PUSH1 0x20 DUP3 DUP5 SUB SLT ISZERO PUSH2 0x190B JUMPI PUSH1 0x0 DUP1 REVERT JUMPDEST POP CALLDATALOAD SWAP2 SWAP1 POP JUMP JUMPDEST DUP1 ISZERO ISZERO DUP2 EQ PUSH2 0x92F JUMPI PUSH1 0x0 DUP1 REVERT JUMPDEST PUSH1 0x0 PUSH1 0x20 DUP3 DUP5 SUB SLT ISZERO PUSH2 0x1932 JUMPI PUSH1 0x0 DUP1 REVERT JUMPDEST DUP2 CALLDATALOAD PUSH2 0x8D5 DUP2 PUSH2 0x1912 JUMP JUMPDEST PUSH1 0x0 DUP1 PUSH1 0x40 DUP4 DUP6 SUB SLT ISZERO PUSH2 0x1950 JUMPI PUSH1 0x0 DUP1 REVERT JUMPDEST PUSH2 0x1959 DUP4 PUSH2 0x185C JUMP JUMPDEST SWAP2 POP PUSH1 0x20 DUP4 ADD CALLDATALOAD PUSH2 0x1969 DUP2 PUSH2 0x1912 JUMP JUMPDEST DUP1 SWAP2 POP POP SWAP3 POP SWAP3 SWAP1 POP JUMP JUMPDEST PUSH1 0x0 DUP1 PUSH1 0x40 DUP4 DUP6 SUB SLT ISZERO PUSH2 0x1987 JUMPI PUSH1 0x0 DUP1 REVERT JUMPDEST POP POP DUP1 CALLDATALOAD SWAP3 PUSH1 0x20 SWAP1 SWAP2 ADD CALLDATALOAD SWAP2 POP JUMP JUMPDEST PUSH1 0x0 DUP1 PUSH1 0x40 DUP4 DUP6 SUB SLT ISZERO PUSH2 0x19A9 JUMPI PUSH1 0x0 DUP1 REVERT JUMPDEST PUSH2 0x19B2 DUP4 PUSH2 0x185C JUMP JUMPDEST SWAP2 POP PUSH2 0x19C0 PUSH1 0x20 DUP5 ADD PUSH2 0x185C JUMP JUMPDEST SWAP1 POP SWAP3 POP SWAP3 SWAP1 POP JUMP JUMPDEST PUSH1 0x0 DUP1 PUSH1 0x0 PUSH1 0x60 DUP5 DUP7 SUB SLT ISZERO PUSH2 0x19DE JUMPI PUSH1 0x0 DUP1 REVERT JUMPDEST POP POP DUP2 CALLDATALOAD SWAP4 PUSH1 0x20 DUP4 ADD CALLDATALOAD SWAP4 POP PUSH1 0x40 SWAP1 SWAP3 ADD CALLDATALOAD SWAP2 SWAP1 POP JUMP JUMPDEST PUSH1 0x1 DUP2 DUP2 SHR SWAP1 DUP3 AND DUP1 PUSH2 0x1A09 JUMPI PUSH1 0x7F DUP3 AND SWAP2 POP JUMPDEST PUSH1 0x20 DUP3 LT DUP2 SUB PUSH2 0x1A29 JUMPI PUSH4 0x4E487B71 PUSH1 0xE0 SHL PUSH1 0x0 MSTORE PUSH1 0x22 PUSH1 0x4 MSTORE PUSH1 0x24 PUSH1 0x0 REVERT JUMPDEST POP SWAP2 SWAP1 POP JUMP JUMPDEST PUSH4 0x4E487B71 PUSH1 0xE0 SHL PUSH1 0x0 MSTORE PUSH1 0x11 PUSH1 0x4 MSTORE PUSH1 0x24 PUSH1 0x0 REVERT JUMPDEST PUSH1 0x0 DUP3 PUSH2 0x1A62 JUMPI PUSH4 0x4E487B71 PUSH1 0xE0 SHL PUSH1 0x0 MSTORE PUSH1 0x12 PUSH1 0x4 MSTORE PUSH1 0x24 PUSH1 0x0 REVERT JUMPDEST POP DIV SWAP1 JUMP JUMPDEST PUSH1 0x0 PUSH1 0x20 DUP3 DUP5 SUB SLT ISZERO PUSH2 0x1A79 JUMPI PUSH1 0x0 DUP1 REVERT JUMPDEST DUP2 MLOAD PUSH2 0x8D5 DUP2 PUSH2 0x1912 JUMP JUMPDEST PUSH1 0x1 DUP2 DUP2 JUMPDEST DUP1 DUP6 GT ISZERO PUSH2 0x1ABF JUMPI DUP2 PUSH1 0x0 NOT DIV DUP3 GT ISZERO PUSH2 0x1AA5 JUMPI PUSH2 0x1AA5 PUSH2 0x1A2F JUMP JUMPDEST DUP1 DUP6 AND ISZERO PUSH2 0x1AB2 JUMPI SWAP2 DUP2 MUL SWAP2 JUMPDEST SWAP4 DUP5 SHR SWAP4 SWAP1 DUP1 MUL SWAP1 PUSH2 0x1A89 JUMP JUMPDEST POP SWAP3 POP SWAP3 SWAP1 POP JUMP JUMPDEST PUSH1 0x0 DUP3 PUSH2 0x1AD6 JUMPI POP PUSH1 0x1 PUSH2 0x76A JUMP JUMPDEST DUP2 PUSH2 0x1AE3 JUMPI POP PUSH1 0x0 PUSH2 0x76A JUMP JUMPDEST DUP2 PUSH1 0x1 DUP2 EQ PUSH2 0x1AF9 JUMPI PUSH1 0x2 DUP2 EQ PUSH2 0x1B03 JUMPI PUSH2 0x1B1F JUMP JUMPDEST PUSH1 0x1 SWAP2 POP POP PUSH2 0x76A JUMP JUMPDEST PUSH1 0xFF DUP5 GT ISZERO PUSH2 0x1B14 JUMPI PUSH2 0x1B14 PUSH2 0x1A2F JUMP JUMPDEST POP POP PUSH1 0x1 DUP3 SHL PUSH2 0x76A JUMP JUMPDEST POP PUSH1 0x20 DUP4 LT PUSH2 0x133 DUP4 LT AND PUSH1 0x4E DUP5 LT PUSH1 0xB DUP5 LT AND OR ISZERO PUSH2 0x1B42 JUMPI POP DUP2 DUP2 EXP PUSH2 0x76A JUMP JUMPDEST PUSH2 0x1B4C DUP4 DUP4 PUSH2 0x1A84 JUMP JUMPDEST DUP1 PUSH1 0x0 NOT DIV DUP3 GT ISZERO PUSH2 0x1B60 JUMPI PUSH2 0x1B60 PUSH2 0x1A2F JUMP JUMPDEST MUL SWAP4 SWAP3 POP POP POP JUMP JUMPDEST PUSH1 0x0 PUSH2 0x8D5 PUSH1 0xFF DUP5 AND DUP4 PUSH2 0x1AC7 JUMP JUMPDEST DUP1 DUP3 MUL DUP2 ISZERO DUP3 DUP3 DIV DUP5 EQ OR PUSH2 0x76A JUMPI PUSH2 0x76A PUSH2 0x1A2F JUMP JUMPDEST DUP1 DUP3 ADD DUP1 DUP3 GT ISZERO PUSH2 0x76A JUMPI PUSH2 0x76A PUSH2 0x1A2F JUMP JUMPDEST DUP2 DUP2 SUB DUP2 DUP2 GT ISZERO PUSH2 0x76A JUMPI PUSH2 0x76A PUSH2 0x1A2F JUMP INVALID LOG2 PUSH5 0x6970667358 0x22 SLT KECCAK256 CREATE2 PUSH4 0xE1A2C246 LT DUP14 0xF7 0xBA SWAP10 PUSH14 0xF0570E008DE3BB3BB7F69D4903BE 0x49 0xBF PUSH11 0x52F39B64736F6C63430008 EQ STOP CALLER "},"methodIdentifiers":{"MAX_TAX()":"86a35f25","allowance(address,address)":"dd62ed3e","approve(address,uint256)":"095ea7b3","balanceOf(address)":"70a08231","burn(uint256)":"42966c68","buyTokens()":"d0febe4c","decimals()":"313ce567","donationTax()":"0a5b298f","donationWallet()":"e7b94df4","getContractETHBalance()":"8c89a0ad","getPresaleInfo()":"767fa723","isExcludedFromFee(address)":"5342acb4","liquidityTax()":"be617fa0","liquidityWallet()":"d4698016","name()":"06fdde03","owner()":"8da5cb5b","presaleActive()":"53135ca0","presaleMaxPurchase()":"8178cb31","presaleMinPurchase()":"c67b599a","reflectionTax()":"3ae2f354","renounceOwnership()":"715018a6","rescueTokens(address,uint256)":"57376198","setExcludedFromFee(address,bool)":"6612e66f","setPresaleActive(bool)":"3f8121a2","setPresaleLimits(uint256,uint256)":"78b7574f","setTokenPrice(uint256)":"6a61e5fc","symbol()":"95d89b41","tokenFromReflection(uint256)":"2d838119","tokenPrice()":"7ff9b596","totalSupply()":"18160ddd","transfer(address,uint256)":"a9059cbb","transferFrom(address,address,uint256)":"23b872dd","transferOwnership(address)":"f2fde38b","updateDonationWallet(address)":"2a088da6","updateLiquidityWallet(address)":"e37ba8f9","updateTaxes(uint256,uint256,uint256)":"f2e76c25","withdrawETH()":"e086e5ec"}}}}}