{
  "_format": "hh-sol-artifact-1",
  "contractName": "BMBLANCE",
  "sourceName": "contracts/BMBLANCE.sol",
  "abi": [
    {
      "inputs": [
        {
          "internalType": "address",
          "name": "_donationWallet",
          "type": "address"
        },
        {
          "internalType": "address",
          "name": "_liquidityWallet",
          "type": "address"
        }
      ],
      "stateMutability": "nonpayable",
      "type": "constructor"
    },
    {
      "inputs": [
        {
          "internalType": "address",
          "name": "spender",
          "type": "address"
        },
        {
          "internalType": "uint256",
          "name": "allowance",
          "type": "uint256"
        },
        {
          "internalType": "uint256",
          "name": "needed",
          "type": "uint256"
        }
      ],
      "name": "ERC20InsufficientAllowance",
      "type": "error"
    },
    {
      "inputs": [
        {
          "internalType": "address",
          "name": "sender",
          "type": "address"
        },
        {
          "internalType": "uint256",
          "name": "balance",
          "type": "uint256"
        },
        {
          "internalType": "uint256",
          "name": "needed",
          "type": "uint256"
        }
      ],
      "name": "ERC20InsufficientBalance",
      "type": "error"
    },
    {
      "inputs": [
        {
          "internalType": "address",
          "name": "approver",
          "type": "address"
        }
      ],
      "name": "ERC20InvalidApprover",
      "type": "error"
    },
    {
      "inputs": [
        {
          "internalType": "address",
          "name": "receiver",
          "type": "address"
        }
      ],
      "name": "ERC20InvalidReceiver",
      "type": "error"
    },
    {
      "inputs": [
        {
          "internalType": "address",
          "name": "sender",
          "type": "address"
        }
      ],
      "name": "ERC20InvalidSender",
      "type": "error"
    },
    {
      "inputs": [
        {
          "internalType": "address",
          "name": "spender",
          "type": "address"
        }
      ],
      "name": "ERC20InvalidSpender",
      "type": "error"
    },
    {
      "inputs": [
        {
          "internalType": "address",
          "name": "owner",
          "type": "address"
        }
      ],
      "name": "OwnableInvalidOwner",
      "type": "error"
    },
    {
      "inputs": [
        {
          "internalType": "address",
          "name": "account",
          "type": "address"
        }
      ],
      "name": "OwnableUnauthorizedAccount",
      "type": "error"
    },
    {
      "inputs": [],
      "name": "ReentrancyGuardReentrantCall",
      "type": "error"
    },
    {
      "anonymous": false,
      "inputs": [
        {
          "indexed": true,
          "internalType": "address",
          "name": "owner",
          "type": "address"
        },
        {
          "indexed": true,
          "internalType": "address",
          "name": "spender",
          "type": "address"
        },
        {
          "indexed": false,
          "internalType": "uint256",
          "name": "value",
          "type": "uint256"
        }
      ],
      "name": "Approval",
      "type": "event"
    },
    {
      "anonymous": false,
      "inputs": [
        {
          "indexed": false,
          "internalType": "address",
          "name": "to",
          "type": "address"
        },
        {
          "indexed": false,
          "internalType": "uint256",
          "name": "amount",
          "type": "uint256"
        }
      ],
      "name": "DonationSent",
      "type": "event"
    },
    {
      "anonymous": false,
      "inputs": [
        {
          "indexed": false,
          "internalType": "address",
          "name": "newWallet",
          "type": "address"
        }
      ],
      "name": "DonationWalletUpdated",
      "type": "event"
    },
    {
      "anonymous": false,
      "inputs": [
        {
          "indexed": false,
          "internalType": "address",
          "name": "account",
          "type": "address"
        },
        {
          "indexed": false,
          "internalType": "bool",
          "name": "excluded",
          "type": "bool"
        }
      ],
      "name": "ExcludedFromFee",
      "type": "event"
    },
    {
      "anonymous": false,
      "inputs": [
        {
          "indexed": false,
          "internalType": "address",
          "name": "newWallet",
          "type": "address"
        }
      ],
      "name": "LiquidityWalletUpdated",
      "type": "event"
    },
    {
      "anonymous": false,
      "inputs": [
        {
          "indexed": true,
          "internalType": "address",
          "name": "previousOwner",
          "type": "address"
        },
        {
          "indexed": true,
          "internalType": "address",
          "name": "newOwner",
          "type": "address"
        }
      ],
      "name": "OwnershipTransferred",
      "type": "event"
    },
    {
      "anonymous": false,
      "inputs": [
        {
          "indexed": false,
          "internalType": "bool",
          "name": "active",
          "type": "bool"
        }
      ],
      "name": "PresaleStatusChanged",
      "type": "event"
    },
    {
      "anonymous": false,
      "inputs": [
        {
          "indexed": false,
          "internalType": "uint256",
          "name": "reflectionTax",
          "type": "uint256"
        },
        {
          "indexed": false,
          "internalType": "uint256",
          "name": "donationTax",
          "type": "uint256"
        },
        {
          "indexed": false,
          "internalType": "uint256",
          "name": "liquidityTax",
          "type": "uint256"
        }
      ],
      "name": "TaxesUpdated",
      "type": "event"
    },
    {
      "anonymous": false,
      "inputs": [
        {
          "indexed": false,
          "internalType": "uint256",
          "name": "newPrice",
          "type": "uint256"
        }
      ],
      "name": "TokenPriceUpdated",
      "type": "event"
    },
    {
      "anonymous": false,
      "inputs": [
        {
          "indexed": true,
          "internalType": "address",
          "name": "buyer",
          "type": "address"
        },
        {
          "indexed": false,
          "internalType": "uint256",
          "name": "ethAmount",
          "type": "uint256"
        },
        {
          "indexed": false,
          "internalType": "uint256",
          "name": "tokenAmount",
          "type": "uint256"
        }
      ],
      "name": "TokensPurchased",
      "type": "event"
    },
    {
      "anonymous": false,
      "inputs": [
        {
          "indexed": true,
          "internalType": "address",
          "name": "from",
          "type": "address"
        },
        {
          "indexed": true,
          "internalType": "address",
          "name": "to",
          "type": "address"
        },
        {
          "indexed": false,
          "internalType": "uint256",
          "name": "value",
          "type": "uint256"
        }
      ],
      "name": "Transfer",
      "type": "event"
    },
    {
      "inputs": [],
      "name": "MAX_TAX",
      "outputs": [
        {
          "internalType": "uint256",
          "name": "",
          "type": "uint256"
        }
      ],
      "stateMutability": "view",
      "type": "function"
    },
    {
      "inputs": [
        {
          "internalType": "address",
          "name": "owner",
          "type": "address"
        },
        {
          "internalType": "address",
          "name": "spender",
          "type": "address"
        }
      ],
      "name": "allowance",
      "outputs": [
        {
          "internalType": "uint256",
          "name": "",
          "type": "uint256"
        }
      ],
      "stateMutability": "view",
      "type": "function"
    },
    {
      "inputs": [
        {
          "internalType": "address",
          "name": "spender",
          "type": "address"
        },
        {
          "internalType": "uint256",
          "name": "value",
          "type": "uint256"
        }
      ],
      "name": "approve",
      "outputs": [
        {
          "internalType": "bool",
          "name": "",
          "type": "bool"
        }
      ],
      "stateMutability": "nonpayable",
      "type": "function"
    },
    {
      "inputs": [
        {
          "internalType": "address",
          "name": "account",
          "type": "address"
        }
      ],
      "name": "balanceOf",
      "outputs": [
        {
          "internalType": "uint256",
          "name": "",
          "type": "uint256"
        }
      ],
      "stateMutability": "view",
      "type": "function"
    },
    {
      "inputs": [
        {
          "internalType": "uint256",
          "name": "amount",
          "type": "uint256"
        }
      ],
      "name": "burn",
      "outputs": [],
      "stateMutability": "nonpayable",
      "type": "function"
    },
    {
      "inputs": [],
      "name": "buyTokens",
      "outputs": [],
      "stateMutability": "payable",
      "type": "function"
    },
    {
      "inputs": [],
      "name": "decimals",
      "outputs": [
        {
          "internalType": "uint8",
          "name": "",
          "type": "uint8"
        }
      ],
      "stateMutability": "view",
      "type": "function"
    },
    {
      "inputs": [],
      "name": "donationTax",
      "outputs": [
        {
          "internalType": "uint256",
          "name": "",
          "type": "uint256"
        }
      ],
      "stateMutability": "view",
      "type": "function"
    },
    {
      "inputs": [],
      "name": "donationWallet",
      "outputs": [
        {
          "internalType": "address",
          "name": "",
          "type": "address"
        }
      ],
      "stateMutability": "view",
      "type": "function"
    },
    {
      "inputs": [],
      "name": "getContractETHBalance",
      "outputs": [
        {
          "internalType": "uint256",
          "name": "",
          "type": "uint256"
        }
      ],
      "stateMutability": "view",
      "type": "function"
    },
    {
      "inputs": [],
      "name": "getPresaleInfo",
      "outputs": [
        {
          "internalType": "bool",
          "name": "active",
          "type": "bool"
        },
        {
          "internalType": "uint256",
          "name": "price",
          "type": "uint256"
        },
        {
          "internalType": "uint256",
          "name": "minPurchase",
          "type": "uint256"
        },
        {
          "internalType": "uint256",
          "name": "maxPurchase",
          "type": "uint256"
        },
        {
          "internalType": "uint256",
          "name": "availableTokens",
          "type": "uint256"
        }
      ],
      "stateMutability": "view",
      "type": "function"
    },
    {
      "inputs": [
        {
          "internalType": "address",
          "name": "account",
          "type": "address"
        }
      ],
      "name": "isExcludedFromFee",
      "outputs": [
        {
          "internalType": "bool",
          "name": "",
          "type": "bool"
        }
      ],
      "stateMutability": "view",
      "type": "function"
    },
    {
      "inputs": [],
      "name": "liquidityTax",
      "outputs": [
        {
          "internalType": "uint256",
          "name": "",
          "type": "uint256"
        }
      ],
      "stateMutability": "view",
      "type": "function"
    },
    {
      "inputs": [],
      "name": "liquidityWallet",
      "outputs": [
        {
          "internalType": "address",
          "name": "",
          "type": "address"
        }
      ],
      "stateMutability": "view",
      "type": "function"
    },
    {
      "inputs": [],
      "name": "name",
      "outputs": [
        {
          "internalType": "string",
          "name": "",
          "type": "string"
        }
      ],
      "stateMutability": "view",
      "type": "function"
    },
    {
      "inputs": [],
      "name": "owner",
      "outputs": [
        {
          "internalType": "address",
          "name": "",
          "type": "address"
        }
      ],
      "stateMutability": "view",
      "type": "function"
    },
    {
      "inputs": [],
      "name": "presaleActive",
      "outputs": [
        {
          "internalType": "bool",
          "name": "",
          "type": "bool"
        }
      ],
      "stateMutability": "view",
      "type": "function"
    },
    {
      "inputs": [],
      "name": "presaleMaxPurchase",
      "outputs": [
        {
          "internalType": "uint256",
          "name": "",
          "type": "uint256"
        }
      ],
      "stateMutability": "view",
      "type": "function"
    },
    {
      "inputs": [],
      "name": "presaleMinPurchase",
      "outputs": [
        {
          "internalType": "uint256",
          "name": "",
          "type": "uint256"
        }
      ],
      "stateMutability": "view",
      "type": "function"
    },
    {
      "inputs": [],
      "name": "reflectionTax",
      "outputs": [
        {
          "internalType": "uint256",
          "name": "",
          "type": "uint256"
        }
      ],
      "stateMutability": "view",
      "type": "function"
    },
    {
      "inputs": [],
      "name": "renounceOwnership",
      "outputs": [],
      "stateMutability": "nonpayable",
      "type": "function"
    },
    {
      "inputs": [
        {
          "internalType": "address",
          "name": "tokenAddress",
          "type": "address"
        },
        {
          "internalType": "uint256",
          "name": "amount",
          "type": "uint256"
        }
      ],
      "name": "rescueTokens",
      "outputs": [],
      "stateMutability": "nonpayable",
      "type": "function"
    },
    {
      "inputs": [
        {
          "internalType": "address",
          "name": "account",
          "type": "address"
        },
        {
          "internalType": "bool",
          "name": "excluded",
          "type": "bool"
        }
      ],
      "name": "setExcludedFromFee",
      "outputs": [],
      "stateMutability": "nonpayable",
      "type": "function"
    },
    {
      "inputs": [
        {
          "internalType": "bool",
          "name": "_active",
          "type": "bool"
        }
      ],
      "name": "setPresaleActive",
      "outputs": [],
      "stateMutability": "nonpayable",
      "type": "function"
    },
    {
      "inputs": [
        {
          "internalType": "uint256",
          "name": "_min",
          "type": "uint256"
        },
        {
          "internalType": "uint256",
          "name": "_max",
          "type": "uint256"
        }
      ],
      "name": "setPresaleLimits",
      "outputs": [],
      "stateMutability": "nonpayable",
      "type": "function"
    },
    {
      "inputs": [
        {
          "internalType": "uint256",
          "name": "_newPrice",
          "type": "uint256"
        }
      ],
      "name": "setTokenPrice",
      "outputs": [],
      "stateMutability": "nonpayable",
      "type": "function"
    },
    {
      "inputs": [],
      "name": "symbol",
      "outputs": [
        {
          "internalType": "string",
          "name": "",
          "type": "string"
        }
      ],
      "stateMutability": "view",
      "type": "function"
    },
    {
      "inputs": [
        {
          "internalType": "uint256",
          "name": "reflectionAmount",
          "type": "uint256"
        }
      ],
      "name": "tokenFromReflection",
      "outputs": [
        {
          "internalType": "uint256",
          "name": "",
          "type": "uint256"
        }
      ],
      "stateMutability": "view",
      "type": "function"
    },
    {
      "inputs": [],
      "name": "tokenPrice",
      "outputs": [
        {
          "internalType": "uint256",
          "name": "",
          "type": "uint256"
        }
      ],
      "stateMutability": "view",
      "type": "function"
    },
    {
      "inputs": [],
      "name": "totalSupply",
      "outputs": [
        {
          "internalType": "uint256",
          "name": "",
          "type": "uint256"
        }
      ],
      "stateMutability": "view",
      "type": "function"
    },
    {
      "inputs": [
        {
          "internalType": "address",
          "name": "to",
          "type": "address"
        },
        {
          "internalType": "uint256",
          "name": "value",
          "type": "uint256"
        }
      ],
      "name": "transfer",
      "outputs": [
        {
          "internalType": "bool",
          "name": "",
          "type": "bool"
        }
      ],
      "stateMutability": "nonpayable",
      "type": "function"
    },
    {
      "inputs": [
        {
          "internalType": "address",
          "name": "from",
          "type": "address"
        },
        {
          "internalType": "address",
          "name": "to",
          "type": "address"
        },
        {
          "internalType": "uint256",
          "name": "value",
          "type": "uint256"
        }
      ],
      "name": "transferFrom",
      "outputs": [
        {
          "internalType": "bool",
          "name": "",
          "type": "bool"
        }
      ],
      "stateMutability": "nonpayable",
      "type": "function"
    },
    {
      "inputs": [
        {
          "internalType": "address",
          "name": "newOwner",
          "type": "address"
        }
      ],
      "name": "transferOwnership",
      "outputs": [],
      "stateMutability": "nonpayable",
      "type": "function"
    },
    {
      "inputs": [
        {
          "internalType": "address",
          "name": "_newWallet",
          "type": "address"
        }
      ],
      "name": "updateDonationWallet",
      "outputs": [],
      "stateMutability": "nonpayable",
      "type": "function"
    },
    {
      "inputs": [
        {
          "internalType": "address",
          "name": "_newWallet",
          "type": "address"
        }
      ],
      "name": "updateLiquidityWallet",
      "outputs": [],
      "stateMutability": "nonpayable",
      "type": "function"
    },
    {
      "inputs": [
        {
          "internalType": "uint256",
          "name": "_reflectionTax",
          "type": "uint256"
        },
        {
          "internalType": "uint256",
          "name": "_donationTax",
          "type": "uint256"
        },
        {
          "internalType": "uint256",
          "name": "_liquidityTax",
          "type": "uint256"
        }
      ],
      "name": "updateTaxes",
      "outputs": [],
      "stateMutability": "nonpayable",
      "type": "function"
    },
    {
      "inputs": [],
      "name": "withdrawETH",
      "outputs": [],
      "stateMutability": "nonpayable",
      "type": "function"
    },
    {
      "stateMutability": "payable",
      "type": "receive"
    }
  ],
  "bytecode": "0x608060405260c860078190556008819055600955629896806012556013805460ff1916600117905566038d7ea4c68000601455678ac7230489e800006015553480156200004b57600080fd5b5060405162002277380380620022778339810160408190526200006e9162000354565b3360405180604001604052806008815260200167424d424c414e434560c01b815250604051806040016040528060048152602001631093509360e21b8152508160039081620000be919062000431565b506004620000cd828262000431565b5050506001600160a01b0381166200010057604051631e4fbdf760e01b8152600060048201526024015b60405180910390fd5b6200010b81620002e5565b5060016006556001600160a01b038216620001695760405162461bcd60e51b815260206004820152601760248201527f496e76616c696420646f6e6174696f6e2077616c6c65740000000000000000006044820152606401620000f7565b6001600160a01b038116620001c15760405162461bcd60e51b815260206004820152601860248201527f496e76616c6964206c69717569646974792077616c6c657400000000000000006044820152606401620000f7565b600a80546001600160a01b038085166001600160a01b031992831617909255600b805492841692909116919091179055620001fa601290565b6200020790600a62000612565b620002189064e8d4a510006200062a565b60108190556200022b9060001962000644565b620002399060001962000667565b6011819055336000818152600c6020908152604080832094909455600e81528382208054600160ff1991821681179092553084528584208054821683179055600a546001600160a01b0390811685528685208054831684179055600b54168452858420805490911690911790556010549351938452919290917fddf252ad1be2c89b69c2b068fc378daa952ba7f163c4a11628f55a4df523b3ef910160405180910390a350506200067d565b600580546001600160a01b038381166001600160a01b0319831681179093556040519116919082907f8be0079c531659141344cd1fd0a4f28419497f9722a3daafe3b4186f6b6457e090600090a35050565b80516001600160a01b03811681146200034f57600080fd5b919050565b600080604083850312156200036857600080fd5b620003738362000337565b9150620003836020840162000337565b90509250929050565b634e487b7160e01b600052604160045260246000fd5b600181811c90821680620003b757607f821691505b602082108103620003d857634e487b7160e01b600052602260045260246000fd5b50919050565b601f8211156200042c57600081815260208120601f850160051c81016020861015620004075750805b601f850160051c820191505b81811015620004285782815560010162000413565b5050505b505050565b81516001600160401b038111156200044d576200044d6200038c565b62000465816200045e8454620003a2565b84620003de565b602080601f8311600181146200049d5760008415620004845750858301515b600019600386901b1c1916600185901b17855562000428565b600085815260208120601f198616915b82811015620004ce57888601518255948401946001909101908401620004ad565b5085821015620004ed5787850151600019600388901b60f8161c191681555b5050505050600190811b01905550565b634e487b7160e01b600052601160045260246000fd5b600181815b8085111562000554578160001904821115620005385762000538620004fd565b808516156200054657918102915b93841c939080029062000518565b509250929050565b6000826200056d575060016200060c565b816200057c575060006200060c565b8160018114620005955760028114620005a057620005c0565b60019150506200060c565b60ff841115620005b457620005b4620004fd565b50506001821b6200060c565b5060208310610133831016604e8410600b8410161715620005e5575081810a6200060c565b620005f1838362000513565b8060001904821115620006085762000608620004fd565b0290505b92915050565b60006200062360ff8416836200055c565b9392505050565b80820281158282048414176200060c576200060c620004fd565b6000826200066257634e487b7160e01b600052601260045260246000fd5b500690565b818103818111156200060c576200060c620004fd565b611bea806200068d6000396000f3fe60806040526004361061021e5760003560e01c8063767fa72311610123578063be617fa0116100ab578063e086e5ec1161006f578063e086e5ec1461062f578063e37ba8f914610644578063e7b94df414610664578063f2e76c2514610684578063f2fde38b146106a457600080fd5b8063be617fa014610595578063c67b599a146105ab578063d0febe4c146105c1578063d4698016146105c9578063dd62ed3e146105e957600080fd5b806386a35f25116100f257806386a35f25146105055780638c89a0ad1461051b5780638da5cb5b1461052e57806395d89b4114610560578063a9059cbb1461057557600080fd5b8063767fa7231461047a57806378b7574f146104b95780637ff9b596146104d95780638178cb31146104ef57600080fd5b80633f8121a2116101a6578063573761981161017557806357376198146103e55780636612e66f146104055780636a61e5fc1461042557806370a0823114610445578063715018a61461046557600080fd5b80633f8121a21461035257806342966c681461037257806353135ca0146103925780635342acb4146103ac57600080fd5b806323b872dd116101ed57806323b872dd146102be5780632a088da6146102de5780632d83811914610300578063313ce567146103205780633ae2f3541461033c57600080fd5b806306fdde031461022a578063095ea7b3146102555780630a5b298f1461028557806318160ddd146102a957600080fd5b3661022557005b600080fd5b34801561023657600080fd5b5061023f6106c4565b60405161024c919061180e565b60405180910390f35b34801561026157600080fd5b50610275610270366004611878565b610756565b604051901515815260200161024c565b34801561029157600080fd5b5061029b60085481565b60405190815260200161024c565b3480156102b557600080fd5b5060105461029b565b3480156102ca57600080fd5b506102756102d93660046118a2565b610770565b3480156102ea57600080fd5b506102fe6102f93660046118de565b610794565b005b34801561030c57600080fd5b5061029b61031b3660046118f9565b610858565b34801561032c57600080fd5b506040516012815260200161024c565b34801561034857600080fd5b5061029b60075481565b34801561035e57600080fd5b506102fe61036d366004611920565b6108dc565b34801561037e57600080fd5b506102fe61038d3660046118f9565b610925565b34801561039e57600080fd5b506013546102759060ff1681565b3480156103b857600080fd5b506102756103c73660046118de565b6001600160a01b03166000908152600e602052604090205460ff1690565b3480156103f157600080fd5b506102fe610400366004611878565b610932565b34801561041157600080fd5b506102fe61042036600461193d565b610a29565b34801561043157600080fd5b506102fe6104403660046118f9565b610a94565b34801561045157600080fd5b5061029b6104603660046118de565b610b21565b34801561047157600080fd5b506102fe610b80565b34801561048657600080fd5b5061048f610b94565b6040805195151586526020860194909452928401919091526060830152608082015260a00161024c565b3480156104c557600080fd5b506102fe6104d4366004611974565b610bdb565b3480156104e557600080fd5b5061029b60125481565b3480156104fb57600080fd5b5061029b60155481565b34801561051157600080fd5b5061029b6103e881565b34801561052757600080fd5b504761029b565b34801561053a57600080fd5b506005546001600160a01b03165b6040516001600160a01b03909116815260200161024c565b34801561056c57600080fd5b5061023f610c3d565b34801561058157600080fd5b50610275610590366004611878565b610c4c565b3480156105a157600080fd5b5061029b60095481565b3480156105b757600080fd5b5061029b60145481565b6102fe610c5a565b3480156105d557600080fd5b50600b54610548906001600160a01b031681565b3480156105f557600080fd5b5061029b610604366004611996565b6001600160a01b03918216600090815260016020908152604080832093909416825291909152205490565b34801561063b57600080fd5b506102fe610e9e565b34801561065057600080fd5b506102fe61065f3660046118de565b610f37565b34801561067057600080fd5b50600a54610548906001600160a01b031681565b34801561069057600080fd5b506102fe61069f3660046119c9565b610fef565b3480156106b057600080fd5b506102fe6106bf3660046118de565b6110a7565b6060600380546106d3906119f5565b80601f01602080910402602001604051908101604052809291908181526020018280546106ff906119f5565b801561074c5780601f106107215761010080835404028352916020019161074c565b820191906000526020600020905b81548152906001019060200180831161072f57829003601f168201915b5050505050905090565b6000336107648185856110e2565b60019150505b92915050565b60003361077e8582856110ef565b61078985858561116e565b506001949350505050565b61079c6111cd565b6001600160a01b0381166107e95760405162461bcd60e51b815260206004820152600f60248201526e496e76616c6964206164647265737360881b60448201526064015b60405180910390fd5b600a80546001600160a01b0319166001600160a01b0383169081179091556000818152600e6020908152604091829020805460ff1916600117905590519182527f57b1023605a0ac1c359252eae420a9abe1922a805916aaec8d0e90110d28291491015b60405180910390a150565b60006011548211156108bf5760405162461bcd60e51b815260206004820152602a60248201527f416d6f756e74206d757374206265206c657373207468616e20746f74616c207260448201526965666c656374696f6e7360b01b60648201526084016107e0565b60006108c96111fa565b90506108d58184611a45565b9392505050565b6108e46111cd565b6013805460ff19168215159081179091556040519081527f1f1a6b0fcc71315f2c3aeddbd1f6d527595d21eea9b73160e78d6fa49b7897a69060200161084d565b61092f3382611211565b50565b61093a6111cd565b306001600160a01b038316036109925760405162461bcd60e51b815260206004820152601760248201527f43616e6e6f7420726573637565206f776e20746f6b656e00000000000000000060448201526064016107e0565b816001600160a01b031663a9059cbb6109b36005546001600160a01b031690565b6040516001600160e01b031960e084901b1681526001600160a01b039091166004820152602481018490526044016020604051808303816000875af1158015610a00573d6000803e3d6000fd5b505050506040513d601f19601f82011682018060405250810190610a249190611a67565b505050565b610a316111cd565b6001600160a01b0382166000818152600e6020908152604091829020805460ff19168515159081179091558251938452908301527f2d43abd87b27cee7b0aa8c6f7e0b4a3247b683262a83cbc2318b0df398a49aa9910160405180910390a15050565b610a9c6111cd565b60008111610aec5760405162461bcd60e51b815260206004820152601c60248201527f5072696365206d7573742062652067726561746572207468616e20300000000060448201526064016107e0565b60128190556040518181527f6b361c807733cc94a3b7bda39c1c94dcc0511e91aa47b0f7f918068e939768909060200161084d565b6001600160a01b0381166000908152600f602052604081205460ff1615610b5e57506001600160a01b03166000908152600d602052604090205490565b6001600160a01b0382166000908152600c602052604090205461076a90610858565b610b886111cd565b610b92600061124b565b565b6000806000806000601360009054906101000a900460ff16601254601454601554610bca6104606005546001600160a01b031690565b945094509450945094509091929394565b610be36111cd565b808210610c325760405162461bcd60e51b815260206004820152601960248201527f4d696e206d757374206265206c657373207468616e206d61780000000000000060448201526064016107e0565b601491909155601555565b6060600480546106d3906119f5565b60003361076481858561116e565b610c6261129d565b60135460ff16610cac5760405162461bcd60e51b815260206004820152601560248201527450726573616c65206973206e6f742061637469766560581b60448201526064016107e0565b601454341015610cf75760405162461bcd60e51b815260206004820152601660248201527542656c6f77206d696e696d756d20707572636861736560501b60448201526064016107e0565b601554341115610d495760405162461bcd60e51b815260206004820152601860248201527f45786365656473206d6178696d756d207075726368617365000000000000000060448201526064016107e0565b6000670de0b6b3a7640000610d606012600a611b68565b601254610d6d9034611b77565b610d779190611b77565b610d819190611a45565b905080610d996104606005546001600160a01b031690565b1015610de75760405162461bcd60e51b815260206004820152601b60248201527f496e73756666696369656e742070726573616c6520746f6b656e73000000000060448201526064016107e0565b610e03610dfc6005546001600160a01b031690565b33836112c7565b604080513481526020810183905233917f8fafebcaf9d154343dad25669bfa277f4fbacd7ac6b0c4fed522580e040a0f33910160405180910390a233610e516005546001600160a01b031690565b6001600160a01b03167fddf252ad1be2c89b69c2b068fc378daa952ba7f163c4a11628f55a4df523b3ef83604051610e8b91815260200190565b60405180910390a350610b926001600655565b610ea66111cd565b610eae61129d565b4780610ef15760405162461bcd60e51b81526020600482015260126024820152714e6f2045544820746f20776974686472617760701b60448201526064016107e0565b6005546040516001600160a01b039091169082156108fc029083906000818181858888f19350505050158015610f2b573d6000803e3d6000fd5b5050610b926001600655565b610f3f6111cd565b6001600160a01b038116610f875760405162461bcd60e51b815260206004820152600f60248201526e496e76616c6964206164647265737360881b60448201526064016107e0565b600b80546001600160a01b0319166001600160a01b0383169081179091556000818152600e6020908152604091829020805460ff1916600117905590519182527fc0f8ad2683cf240266d4f868f5b59a16c13e4a0ff63dfcfb0f0cd3843a121784910161084d565b610ff76111cd565b6103e8816110058486611b8e565b61100f9190611b8e565b11156110525760405162461bcd60e51b81526020600482015260126024820152710a8dee8c2d840e8c2f040e8dede40d0d2ced60731b60448201526064016107e0565b60078390556008829055600981905560408051848152602081018490529081018290527fbf599f0b0b785a611d748a0dfabee402e180323c72c9ed973e5cc29d23c992d89060600160405180910390a1505050565b6110af6111cd565b6001600160a01b0381166110d957604051631e4fbdf760e01b8152600060048201526024016107e0565b61092f8161124b565b610a248383836001611430565b6001600160a01b03838116600090815260016020908152604080832093861683529290522054600019811015611168578181101561115957604051637dc7a0d960e11b81526001600160a01b038416600482015260248101829052604481018390526064016107e0565b61116884848484036000611430565b50505050565b6001600160a01b03831661119857604051634b637e8f60e11b8152600060048201526024016107e0565b6001600160a01b0382166111c25760405163ec442f0560e01b8152600060048201526024016107e0565b610a24838383611505565b6005546001600160a01b03163314610b925760405163118cdaa760e01b81523360048201526024016107e0565b600060105460115461120c9190611a45565b905090565b6001600160a01b03821661123b57604051634b637e8f60e11b8152600060048201526024016107e0565b61124782600083611505565b5050565b600580546001600160a01b038381166001600160a01b0319831681179093556040519116919082907f8be0079c531659141344cd1fd0a4f28419497f9722a3daafe3b4186f6b6457e090600090a35050565b6002600654036112c057604051633ee5aeb560e01b815260040160405180910390fd5b6002600655565b60006112d16111fa565b905060006112df8284611b77565b6001600160a01b0386166000908152600c602052604081208054929350839290919061130c908490611ba1565b90915550506001600160a01b0384166000908152600c602052604081208054839290611339908490611b8e565b90915550506001600160a01b0385166000908152600f602052604090205460ff161561138d576001600160a01b0385166000908152600d602052604081208054859290611387908490611ba1565b90915550505b6001600160a01b0384166000908152600f602052604090205460ff16156113dc576001600160a01b0384166000908152600d6020526040812080548592906113d6908490611b8e565b90915550505b836001600160a01b0316856001600160a01b03167fddf252ad1be2c89b69c2b068fc378daa952ba7f163c4a11628f55a4df523b3ef8560405161142191815260200190565b60405180910390a35050505050565b6001600160a01b03841661145a5760405163e602df0560e01b8152600060048201526024016107e0565b6001600160a01b03831661148457604051634a1406b160e11b8152600060048201526024016107e0565b6001600160a01b038085166000908152600160209081526040808320938716835292905220829055801561116857826001600160a01b0316846001600160a01b03167f8c5be1e5ebec7d5bd14f71427d1e84f3dd0314c0f7b2291e5b200ac8c7c3b925846040516114f791815260200190565b60405180910390a350505050565b6001600160a01b0383166115695760405162461bcd60e51b815260206004820152602560248201527f45524332303a207472616e736665722066726f6d20746865207a65726f206164604482015264647265737360d81b60648201526084016107e0565b6001600160a01b0382166115cb5760405162461bcd60e51b815260206004820152602360248201527f45524332303a207472616e7366657220746f20746865207a65726f206164647260448201526265737360e81b60648201526084016107e0565b6000811161162d5760405162461bcd60e51b815260206004820152602960248201527f5472616e7366657220616d6f756e74206d7573742062652067726561746572206044820152687468616e207a65726f60b81b60648201526084016107e0565b6001600160a01b0383166000908152600e602052604090205460019060ff168061166f57506001600160a01b0383166000908152600e602052604090205460ff165b15611678575060005b8080156116a1575060006009546008546007546116959190611b8e565b61169f9190611b8e565b115b156117cd576000612710600754846116b99190611b77565b6116c39190611a45565b90506000612710600854856116d89190611b77565b6116e29190611a45565b90506000612710600954866116f79190611b77565b6117019190611a45565b9050600081836117118689611ba1565b61171b9190611ba1565b6117259190611ba1565b9050831561173657611736846117d8565b821561179b57600a546117549089906001600160a01b0316856112c7565b600a54604080516001600160a01b039092168252602082018590527f67a9bd2734eac78f1ac30823ea3d8e3c8b2be225836b3a4917ed0c15508f40aa910160405180910390a15b81156117b957600b546117b99089906001600160a01b0316846112c7565b6117c48888836112c7565b50505050611168565b6111688484846112c7565b60006117e26111fa565b905060006117f08284611b77565b905080601160008282546118049190611ba1565b9091555050505050565b600060208083528351808285015260005b8181101561183b5785810183015185820160400152820161181f565b506000604082860101526040601f19601f8301168501019250505092915050565b80356001600160a01b038116811461187357600080fd5b919050565b6000806040838503121561188b57600080fd5b6118948361185c565b946020939093013593505050565b6000806000606084860312156118b757600080fd5b6118c08461185c565b92506118ce6020850161185c565b9150604084013590509250925092565b6000602082840312156118f057600080fd5b6108d58261185c565b60006020828403121561190b57600080fd5b5035919050565b801515811461092f57600080fd5b60006020828403121561193257600080fd5b81356108d581611912565b6000806040838503121561195057600080fd5b6119598361185c565b9150602083013561196981611912565b809150509250929050565b6000806040838503121561198757600080fd5b50508035926020909101359150565b600080604083850312156119a957600080fd5b6119b28361185c565b91506119c06020840161185c565b90509250929050565b6000806000606084860312156119de57600080fd5b505081359360208301359350604090920135919050565b600181811c90821680611a0957607f821691505b602082108103611a2957634e487b7160e01b600052602260045260246000fd5b50919050565b634e487b7160e01b600052601160045260246000fd5b600082611a6257634e487b7160e01b600052601260045260246000fd5b500490565b600060208284031215611a7957600080fd5b81516108d581611912565b600181815b80851115611abf578160001904821115611aa557611aa5611a2f565b80851615611ab257918102915b93841c9390800290611a89565b509250929050565b600082611ad65750600161076a565b81611ae35750600061076a565b8160018114611af95760028114611b0357611b1f565b600191505061076a565b60ff841115611b1457611b14611a2f565b50506001821b61076a565b5060208310610133831016604e8410600b8410161715611b42575081810a61076a565b611b4c8383611a84565b8060001904821115611b6057611b60611a2f565b029392505050565b60006108d560ff841683611ac7565b808202811582820484141761076a5761076a611a2f565b8082018082111561076a5761076a611a2f565b8181038181111561076a5761076a611a2f56fea2646970667358221220f563e1a2c246108df7ba996df0570e008de3bb3bb7f69d4903be49bf6a52f39b64736f6c63430008140033",
  "linkReferences": {},
  "deployedLinkReferences": {}
}